{
  "address": "0xb945823d5ff1508f4753688B7781470926Ac36E6",
  "abi": [
    {
      "inputs": [],
      "stateMutability": "nonpayable",
      "type": "constructor"
    },
    {
      "anonymous": false,
      "inputs": [
        {
          "indexed": true,
          "internalType": "address",
          "name": "owner",
          "type": "address"
        },
        {
          "indexed": true,
          "internalType": "address",
          "name": "approved",
          "type": "address"
        },
        {
          "indexed": true,
          "internalType": "uint256",
          "name": "tokenId",
          "type": "uint256"
        }
      ],
      "name": "Approval",
      "type": "event"
    },
    {
      "anonymous": false,
      "inputs": [
        {
          "indexed": true,
          "internalType": "address",
          "name": "owner",
          "type": "address"
        },
        {
          "indexed": true,
          "internalType": "address",
          "name": "operator",
          "type": "address"
        },
        {
          "indexed": false,
          "internalType": "bool",
          "name": "approved",
          "type": "bool"
        }
      ],
      "name": "ApprovalForAll",
      "type": "event"
    },
    {
      "anonymous": false,
      "inputs": [
        {
          "indexed": true,
          "internalType": "address",
          "name": "previousOwner",
          "type": "address"
        },
        {
          "indexed": true,
          "internalType": "address",
          "name": "newOwner",
          "type": "address"
        }
      ],
      "name": "OwnershipTransferred",
      "type": "event"
    },
    {
      "anonymous": false,
      "inputs": [
        {
          "indexed": true,
          "internalType": "address",
          "name": "from",
          "type": "address"
        },
        {
          "indexed": true,
          "internalType": "address",
          "name": "to",
          "type": "address"
        },
        {
          "indexed": true,
          "internalType": "uint256",
          "name": "tokenId",
          "type": "uint256"
        }
      ],
      "name": "Transfer",
      "type": "event"
    },
    {
      "inputs": [
        {
          "internalType": "address",
          "name": "to",
          "type": "address"
        },
        {
          "internalType": "uint256",
          "name": "tokenId",
          "type": "uint256"
        }
      ],
      "name": "approve",
      "outputs": [],
      "stateMutability": "nonpayable",
      "type": "function"
    },
    {
      "inputs": [
        {
          "internalType": "address",
          "name": "owner",
          "type": "address"
        }
      ],
      "name": "balanceOf",
      "outputs": [
        {
          "internalType": "uint256",
          "name": "",
          "type": "uint256"
        }
      ],
      "stateMutability": "view",
      "type": "function"
    },
    {
      "inputs": [
        {
          "internalType": "uint256",
          "name": "tokenId",
          "type": "uint256"
        }
      ],
      "name": "burn",
      "outputs": [],
      "stateMutability": "nonpayable",
      "type": "function"
    },
    {
      "inputs": [
        {
          "internalType": "uint256",
          "name": "tokenId",
          "type": "uint256"
        }
      ],
      "name": "getApproved",
      "outputs": [
        {
          "internalType": "address",
          "name": "",
          "type": "address"
        }
      ],
      "stateMutability": "view",
      "type": "function"
    },
    {
      "inputs": [
        {
          "internalType": "address",
          "name": "owner",
          "type": "address"
        },
        {
          "internalType": "address",
          "name": "operator",
          "type": "address"
        }
      ],
      "name": "isApprovedForAll",
      "outputs": [
        {
          "internalType": "bool",
          "name": "",
          "type": "bool"
        }
      ],
      "stateMutability": "view",
      "type": "function"
    },
    {
      "inputs": [],
      "name": "metadataURI",
      "outputs": [
        {
          "internalType": "string",
          "name": "",
          "type": "string"
        }
      ],
      "stateMutability": "view",
      "type": "function"
    },
    {
      "inputs": [],
      "name": "name",
      "outputs": [
        {
          "internalType": "string",
          "name": "",
          "type": "string"
        }
      ],
      "stateMutability": "view",
      "type": "function"
    },
    {
      "inputs": [],
      "name": "owner",
      "outputs": [
        {
          "internalType": "address",
          "name": "",
          "type": "address"
        }
      ],
      "stateMutability": "view",
      "type": "function"
    },
    {
      "inputs": [
        {
          "internalType": "uint256",
          "name": "tokenId",
          "type": "uint256"
        }
      ],
      "name": "ownerOf",
      "outputs": [
        {
          "internalType": "address",
          "name": "",
          "type": "address"
        }
      ],
      "stateMutability": "view",
      "type": "function"
    },
    {
      "inputs": [],
      "name": "renounceOwnership",
      "outputs": [],
      "stateMutability": "nonpayable",
      "type": "function"
    },
    {
      "inputs": [
        {
          "internalType": "address",
          "name": "to",
          "type": "address"
        },
        {
          "internalType": "string",
          "name": "cid",
          "type": "string"
        }
      ],
      "name": "safeMint",
      "outputs": [
        {
          "internalType": "uint256",
          "name": "",
          "type": "uint256"
        }
      ],
      "stateMutability": "nonpayable",
      "type": "function"
    },
    {
      "inputs": [
        {
          "internalType": "address",
          "name": "from",
          "type": "address"
        },
        {
          "internalType": "address",
          "name": "to",
          "type": "address"
        },
        {
          "internalType": "uint256",
          "name": "tokenId",
          "type": "uint256"
        }
      ],
      "name": "safeTransferFrom",
      "outputs": [],
      "stateMutability": "nonpayable",
      "type": "function"
    },
    {
      "inputs": [
        {
          "internalType": "address",
          "name": "from",
          "type": "address"
        },
        {
          "internalType": "address",
          "name": "to",
          "type": "address"
        },
        {
          "internalType": "uint256",
          "name": "tokenId",
          "type": "uint256"
        },
        {
          "internalType": "bytes",
          "name": "data",
          "type": "bytes"
        }
      ],
      "name": "safeTransferFrom",
      "outputs": [],
      "stateMutability": "nonpayable",
      "type": "function"
    },
    {
      "inputs": [
        {
          "internalType": "address",
          "name": "operator",
          "type": "address"
        },
        {
          "internalType": "bool",
          "name": "approved",
          "type": "bool"
        }
      ],
      "name": "setApprovalForAll",
      "outputs": [],
      "stateMutability": "nonpayable",
      "type": "function"
    },
    {
      "inputs": [
        {
          "internalType": "bytes4",
          "name": "interfaceId",
          "type": "bytes4"
        }
      ],
      "name": "supportsInterface",
      "outputs": [
        {
          "internalType": "bool",
          "name": "",
          "type": "bool"
        }
      ],
      "stateMutability": "view",
      "type": "function"
    },
    {
      "inputs": [],
      "name": "symbol",
      "outputs": [
        {
          "internalType": "string",
          "name": "",
          "type": "string"
        }
      ],
      "stateMutability": "view",
      "type": "function"
    },
    {
      "inputs": [
        {
          "internalType": "uint256",
          "name": "tokenId",
          "type": "uint256"
        }
      ],
      "name": "tokenURI",
      "outputs": [
        {
          "internalType": "string",
          "name": "",
          "type": "string"
        }
      ],
      "stateMutability": "view",
      "type": "function"
    },
    {
      "inputs": [
        {
          "internalType": "address",
          "name": "from",
          "type": "address"
        },
        {
          "internalType": "address",
          "name": "to",
          "type": "address"
        },
        {
          "internalType": "uint256",
          "name": "tokenId",
          "type": "uint256"
        }
      ],
      "name": "transferFrom",
      "outputs": [],
      "stateMutability": "nonpayable",
      "type": "function"
    },
    {
      "inputs": [
        {
          "internalType": "address",
          "name": "newOwner",
          "type": "address"
        }
      ],
      "name": "transferOwnership",
      "outputs": [],
      "stateMutability": "nonpayable",
      "type": "function"
    },
    {
      "inputs": [
        {
          "internalType": "uint256",
          "name": "tokenId",
          "type": "uint256"
        }
      ],
      "name": "userBurn",
      "outputs": [],
      "stateMutability": "nonpayable",
      "type": "function"
    }
  ],
  "transactionHash": "0xf170a4a65607f4626b251f5c7f6e49c0c594bfe72efaa71a7bf51485622a73fb",
  "args": [],
  "numDeployments": 1,
  "solcInputHash": "ffb13db2ad8011621c74a2329eb9574f",
  "bytecode": "0x60806040526040518060600160405280602b815260200162004a41602b9139600b90816200002e919062000946565b506040518060400160405280600781526020017f4253465f53504e00000000000000000000000000000000000000000000000000815250600e908162000075919062000946565b503480156200008357600080fd5b506040518060400160405280600e81526020017f42415349435f53504e5f464143540000000000000000000000000000000000008152506040518060400160405280600381526020017f4253460000000000000000000000000000000000000000000000000000000000815250816000908162000101919062000946565b50806001908162000113919062000946565b505050620001366200012a6200036960201b60201c565b6200037160201b60201c565b6001600881905550734b48841d4b32c4650e4abc117a03fe8b51f38f68600a60006101000a81548173ffffffffffffffffffffffffffffffffffffffff021916908373ffffffffffffffffffffffffffffffffffffffff160217905550600a60009054906101000a900473ffffffffffffffffffffffffffffffffffffffff1673ffffffffffffffffffffffffffffffffffffffff16633a9151b030620002946040518060600160405280602c815260200162004a6c602c9139600e8054620001ff9062000735565b80601f01602080910402602001604051908101604052809291908181526020018280546200022d9062000735565b80156200027e5780601f1062000252576101008083540402835291602001916200027e565b820191906000526020600020905b8154815290600101906020018083116200026057829003601f168201915b50505050506200043760201b62000dd61760201c565b6040518363ffffffff1660e01b8152600401620002b392919062000b01565b6020604051808303816000875af1158015620002d3573d6000803e3d6000fd5b505050506040513d601f19601f82011682018060405250810190620002f9919062000b6b565b600d81905550600e62000317466200047c60201b62000e0c1760201c565b6200032f600d546200047c60201b62000e0c1760201c565b604051602001620003439392919062000c94565b604051602081830303815290604052600c908162000362919062000946565b5062000ec7565b600033905090565b6000600760009054906101000a900473ffffffffffffffffffffffffffffffffffffffff16905081600760006101000a81548173ffffffffffffffffffffffffffffffffffffffff021916908373ffffffffffffffffffffffffffffffffffffffff1602179055508173ffffffffffffffffffffffffffffffffffffffff168173ffffffffffffffffffffffffffffffffffffffff167f8be0079c531659141344cd1fd0a4f28419497f9722a3daafe3b4186f6b6457e060405160405180910390a35050565b60608162000450466200047c60201b62000e0c1760201c565b84604051602001620004659392919062000e2d565b604051602081830303815290604052905092915050565b60606000600162000498846200056060201b62000eda1760201c565b01905060008167ffffffffffffffff811115620004ba57620004b9620006d7565b5b6040519080825280601f01601f191660200182016040528015620004ed5781602001600182028036833780820191505090505b509050600082602001820190505b60011562000555578080600190039150507f3031323334353637383961626364656600000000000000000000000000000000600a86061a8153600a858162000548576200054762000e98565b5b04945060008503620004fb575b819350505050919050565b600080600090507a184f03e93ff9f4daa797ed6e38ed64bf6a1f0100000000000000008310620005c2577a184f03e93ff9f4daa797ed6e38ed64bf6a1f0100000000000000008381620005b857620005b762000e98565b5b0492506040810190505b6d04ee2d6d415b85acef8100000000831062000603576d04ee2d6d415b85acef81000000008381620005f957620005f862000e98565b5b0492506020810190505b662386f26fc1000083106200063657662386f26fc1000083816200062c576200062b62000e98565b5b0492506010810190505b6305f5e100831062000663576305f5e100838162000659576200065862000e98565b5b0492506008810190505b61271083106200068c57612710838162000682576200068162000e98565b5b0492506004810190505b60648310620006b35760648381620006a957620006a862000e98565b5b0492506002810190505b600a8310620006c3576001810190505b80915050919050565b600081519050919050565b7f4e487b7100000000000000000000000000000000000000000000000000000000600052604160045260246000fd5b7f4e487b7100000000000000000000000000000000000000000000000000000000600052602260045260246000fd5b600060028204905060018216806200074e57607f821691505b60208210810362000764576200076362000706565b5b50919050565b60008190508160005260206000209050919050565b60006020601f8301049050919050565b600082821b905092915050565b600060088302620007ce7fffffffffffffffffffffffffffffffffffffffffffffffffffffffffffffffff826200078f565b620007da86836200078f565b95508019841693508086168417925050509392505050565b6000819050919050565b6000819050919050565b600062000827620008216200081b84620007f2565b620007fc565b620007f2565b9050919050565b6000819050919050565b620008438362000806565b6200085b62000852826200082e565b8484546200079c565b825550505050565b600090565b6200087262000863565b6200087f81848462000838565b505050565b5b81811015620008a7576200089b60008262000868565b60018101905062000885565b5050565b601f821115620008f657620008c0816200076a565b620008cb846200077f565b81016020851015620008db578190505b620008f3620008ea856200077f565b83018262000884565b50505b505050565b600082821c905092915050565b60006200091b60001984600802620008fb565b1980831691505092915050565b600062000936838362000908565b9150826002028217905092915050565b6200095182620006cc565b67ffffffffffffffff8111156200096d576200096c620006d7565b5b62000979825462000735565b62000986828285620008ab565b600060209050601f831160018114620009be5760008415620009a9578287015190505b620009b5858262000928565b86555062000a25565b601f198416620009ce866200076a565b60005b82811015620009f857848901518255600182019150602085019450602081019050620009d1565b8683101562000a18578489015162000a14601f89168262000908565b8355505b6001600288020188555050505b505050505050565b600073ffffffffffffffffffffffffffffffffffffffff82169050919050565b600062000a5a8262000a2d565b9050919050565b62000a6c8162000a4d565b82525050565b600082825260208201905092915050565b60005b8381101562000aa357808201518184015260208101905062000a86565b60008484015250505050565b6000601f19601f8301169050919050565b600062000acd82620006cc565b62000ad9818562000a72565b935062000aeb81856020860162000a83565b62000af68162000aaf565b840191505092915050565b600060408201905062000b18600083018562000a61565b818103602083015262000b2c818462000ac0565b90509392505050565b600080fd5b62000b4581620007f2565b811462000b5157600080fd5b50565b60008151905062000b658162000b3a565b92915050565b60006020828403121562000b845762000b8362000b35565b5b600062000b948482850162000b54565b91505092915050565b600081905092915050565b6000815462000bb78162000735565b62000bc3818662000b9d565b9450600182166000811462000be1576001811462000bf75762000c2e565b60ff198316865281151582028601935062000c2e565b62000c02856200076a565b60005b8381101562000c265781548189015260018201915060208101905062000c05565b838801955050505b50505092915050565b7f5f00000000000000000000000000000000000000000000000000000000000000815250565b600062000c6a82620006cc565b62000c76818562000b9d565b935062000c8881856020860162000a83565b80840191505092915050565b600062000ca2828662000ba8565b915062000caf8262000c37565b60018201915062000cc1828562000c5d565b915062000cce8262000c37565b60018201915062000ce0828462000c5d565b9150819050949350505050565b7f435245415445205441424c452000000000000000000000000000000000000000600082015250565b600062000d25600d8362000b9d565b915062000d328262000ced565b600d82019050919050565b7f5f00000000000000000000000000000000000000000000000000000000000000600082015250565b600062000d7560018362000b9d565b915062000d828262000d3d565b600182019050919050565b7f2800000000000000000000000000000000000000000000000000000000000000600082015250565b600062000dc560018362000b9d565b915062000dd28262000d8d565b600182019050919050565b7f2900000000000000000000000000000000000000000000000000000000000000600082015250565b600062000e1560018362000b9d565b915062000e228262000ddd565b600182019050919050565b600062000e3a8262000d16565b915062000e48828662000c5d565b915062000e558262000d66565b915062000e63828562000c5d565b915062000e708262000db6565b915062000e7e828462000c5d565b915062000e8b8262000e06565b9150819050949350505050565b7f4e487b7100000000000000000000000000000000000000000000000000000000600052601260045260246000fd5b613b6a8062000ed76000396000f3fe608060405234801561001057600080fd5b506004361061012c5760003560e01c806370a08231116100ad578063b88d4fde11610071578063b88d4fde1461031b578063c87b56dd14610337578063d204c45e14610367578063e985e9c514610397578063f2fde38b146103c75761012c565b806370a0823114610289578063715018a6146102b95780638da5cb5b146102c357806395d89b41146102e1578063a22cb465146102ff5761012c565b806323b872dd116100f457806323b872dd146101e957806342842e0e1461020557806342966c6814610221578063496409191461023d5780636352211e146102595761012c565b806301ffc9a71461013157806303ee438c1461016157806306fdde031461017f578063081812fc1461019d578063095ea7b3146101cd575b600080fd5b61014b60048036038101906101469190612544565b6103e3565b604051610158919061258c565b60405180910390f35b6101696104c5565b6040516101769190612637565b60405180910390f35b6101876104fc565b6040516101949190612637565b60405180910390f35b6101b760048036038101906101b2919061268f565b61058e565b6040516101c491906126fd565b60405180910390f35b6101e760048036038101906101e29190612744565b6105d4565b005b61020360048036038101906101fe9190612784565b6106eb565b005b61021f600480360381019061021a9190612784565b61074b565b005b61023b6004803603810190610236919061268f565b61076b565b005b6102576004803603810190610252919061268f565b6107c7565b005b610273600480360381019061026e919061268f565b610849565b60405161028091906126fd565b60405180910390f35b6102a3600480360381019061029e91906127d7565b6108cf565b6040516102b09190612813565b60405180910390f35b6102c1610986565b005b6102cb61099a565b6040516102d891906126fd565b60405180910390f35b6102e96109c4565b6040516102f69190612637565b60405180910390f35b6103196004803603810190610314919061285a565b610a56565b005b610335600480360381019061033091906129cf565b610a6c565b005b610351600480360381019061034c919061268f565b610ace565b60405161035e9190612637565b60405180910390f35b610381600480360381019061037c9190612af3565b610ae0565b60405161038e9190612813565b60405180910390f35b6103b160048036038101906103ac9190612b4f565b610cbf565b6040516103be919061258c565b60405180910390f35b6103e160048036038101906103dc91906127d7565b610d53565b005b60007f80ac58cd000000000000000000000000000000000000000000000000000000007bffffffffffffffffffffffffffffffffffffffffffffffffffffffff1916827bffffffffffffffffffffffffffffffffffffffffffffffffffffffff191614806104ae57507f5b5e139f000000000000000000000000000000000000000000000000000000007bffffffffffffffffffffffffffffffffffffffffffffffffffffffff1916827bffffffffffffffffffffffffffffffffffffffffffffffffffffffff1916145b806104be57506104bd8261102d565b5b9050919050565b606060006104d1611097565b905080600c6040516020016104e7929190612ce9565b60405160208183030381529060405291505090565b60606000805461050b90612c20565b80601f016020809104026020016040519081016040528092919081815260200182805461053790612c20565b80156105845780601f1061055957610100808354040283529160200191610584565b820191906000526020600020905b81548152906001019060200180831161056757829003601f168201915b5050505050905090565b600061059982611129565b6004600083815260200190815260200160002060009054906101000a900473ffffffffffffffffffffffffffffffffffffffff169050919050565b60006105df82610849565b90508073ffffffffffffffffffffffffffffffffffffffff168373ffffffffffffffffffffffffffffffffffffffff160361064f576040517f08c379a000000000000000000000000000000000000000000000000000000000815260040161064690612d8e565b60405180910390fd5b8073ffffffffffffffffffffffffffffffffffffffff1661066e611174565b73ffffffffffffffffffffffffffffffffffffffff16148061069d575061069c81610697611174565b610cbf565b5b6106dc576040517f08c379a00000000000000000000000000000000000000000000000000000000081526004016106d390612e20565b60405180910390fd5b6106e6838361117c565b505050565b6106fc6106f6611174565b82611235565b61073b576040517f08c379a000000000000000000000000000000000000000000000000000000000815260040161073290612eb2565b60405180910390fd5b6107468383836112ca565b505050565b61076683838360405180602001604052806000815250610a6c565b505050565b61077c610776611174565b82611235565b6107bb576040517f08c379a00000000000000000000000000000000000000000000000000000000081526004016107b290612eb2565b60405180910390fd5b6107c4816115c3565b50565b3373ffffffffffffffffffffffffffffffffffffffff166107e782610849565b73ffffffffffffffffffffffffffffffffffffffff161461083d576040517f08c379a000000000000000000000000000000000000000000000000000000000815260040161083490612f1e565b60405180910390fd5b610846816115c3565b50565b600080610855836115cf565b9050600073ffffffffffffffffffffffffffffffffffffffff168173ffffffffffffffffffffffffffffffffffffffff16036108c6576040517f08c379a00000000000000000000000000000000000000000000000000000000081526004016108bd90612f8a565b60405180910390fd5b80915050919050565b60008073ffffffffffffffffffffffffffffffffffffffff168273ffffffffffffffffffffffffffffffffffffffff160361093f576040517f08c379a00000000000000000000000000000000000000000000000000000000081526004016109369061301c565b60405180910390fd5b600360008373ffffffffffffffffffffffffffffffffffffffff1673ffffffffffffffffffffffffffffffffffffffff168152602001908152602001600020549050919050565b61098e61160c565b610998600061168a565b565b6000600760009054906101000a900473ffffffffffffffffffffffffffffffffffffffff16905090565b6060600180546109d390612c20565b80601f01602080910402602001604051908101604052809291908181526020018280546109ff90612c20565b8015610a4c5780601f10610a2157610100808354040283529160200191610a4c565b820191906000526020600020905b815481529060010190602001808311610a2f57829003601f168201915b5050505050905090565b610a68610a61611174565b8383611750565b5050565b610a7d610a77611174565b83611235565b610abc576040517f08c379a0000000000000000000000000000000000000000000000000000000008152600401610ab390612eb2565b60405180910390fd5b610ac8848484846118bc565b50505050565b6060610ad982611918565b9050919050565b600080610aed6009611a2a565b9050600a60009054906101000a900473ffffffffffffffffffffffffffffffffffffffff1673ffffffffffffffffffffffffffffffffffffffff1663eaf5d04e30600d54610c41600e8054610b4190612c20565b80601f0160208091040260200160405190810160405280929190818152602001828054610b6d90612c20565b8015610bba5780601f10610b8f57610100808354040283529160200191610bba565b820191906000526020600020905b815481529060010190602001808311610b9d57829003601f168201915b5050505050600d546040518060400160405280600e81526020017f69642c616464726573732c636964000000000000000000000000000000000000815250610c0189610e0c565b610c12610c0d8e611a38565b611a65565b610c1b8d611a65565b604051602001610c2d93929190613062565b604051602081830303815290604052611a8e565b6040518463ffffffff1660e01b8152600401610c5f939291906130b1565b600060405180830381600087803b158015610c7957600080fd5b505af1158015610c8d573d6000803e3d6000fd5b50505050610cab848260405180602001604052806000815250611acd565b610cb56009611b28565b8091505092915050565b6000600560008473ffffffffffffffffffffffffffffffffffffffff1673ffffffffffffffffffffffffffffffffffffffff16815260200190815260200160002060008373ffffffffffffffffffffffffffffffffffffffff1673ffffffffffffffffffffffffffffffffffffffff16815260200190815260200160002060009054906101000a900460ff16905092915050565b610d5b61160c565b600073ffffffffffffffffffffffffffffffffffffffff168173ffffffffffffffffffffffffffffffffffffffff1603610dca576040517f08c379a0000000000000000000000000000000000000000000000000000000008152600401610dc190613161565b60405180910390fd5b610dd38161168a565b50565b606081610de246610e0c565b84604051602001610df5939291906132b1565b604051602081830303815290604052905092915050565b606060006001610e1b84610eda565b01905060008167ffffffffffffffff811115610e3a57610e396128a4565b5b6040519080825280601f01601f191660200182016040528015610e6c5781602001600182028036833780820191505090505b509050600082602001820190505b600115610ecf578080600190039150507f3031323334353637383961626364656600000000000000000000000000000000600a86061a8153600a8581610ec357610ec261330e565b5b04945060008503610e7a575b819350505050919050565b600080600090507a184f03e93ff9f4daa797ed6e38ed64bf6a1f0100000000000000008310610f38577a184f03e93ff9f4daa797ed6e38ed64bf6a1f0100000000000000008381610f2e57610f2d61330e565b5b0492506040810190505b6d04ee2d6d415b85acef81000000008310610f75576d04ee2d6d415b85acef81000000008381610f6b57610f6a61330e565b5b0492506020810190505b662386f26fc100008310610fa457662386f26fc100008381610f9a57610f9961330e565b5b0492506010810190505b6305f5e1008310610fcd576305f5e1008381610fc357610fc261330e565b5b0492506008810190505b6127108310610ff2576127108381610fe857610fe761330e565b5b0492506004810190505b60648310611015576064838161100b5761100a61330e565b5b0492506002810190505b600a8310611024576001810190505b80915050919050565b60007f01ffc9a7000000000000000000000000000000000000000000000000000000007bffffffffffffffffffffffffffffffffffffffffffffffffffffffff1916827bffffffffffffffffffffffffffffffffffffffffffffffffffffffff1916149050919050565b6060600b80546110a690612c20565b80601f01602080910402602001604051908101604052809291908181526020018280546110d290612c20565b801561111f5780601f106110f45761010080835404028352916020019161111f565b820191906000526020600020905b81548152906001019060200180831161110257829003601f168201915b5050505050905090565b61113281611b3e565b611171576040517f08c379a000000000000000000000000000000000000000000000000000000000815260040161116890612f8a565b60405180910390fd5b50565b600033905090565b816004600083815260200190815260200160002060006101000a81548173ffffffffffffffffffffffffffffffffffffffff021916908373ffffffffffffffffffffffffffffffffffffffff160217905550808273ffffffffffffffffffffffffffffffffffffffff166111ef83610849565b73ffffffffffffffffffffffffffffffffffffffff167f8c5be1e5ebec7d5bd14f71427d1e84f3dd0314c0f7b2291e5b200ac8c7c3b92560405160405180910390a45050565b60008061124183610849565b90508073ffffffffffffffffffffffffffffffffffffffff168473ffffffffffffffffffffffffffffffffffffffff16148061128357506112828185610cbf565b5b806112c157508373ffffffffffffffffffffffffffffffffffffffff166112a98461058e565b73ffffffffffffffffffffffffffffffffffffffff16145b91505092915050565b8273ffffffffffffffffffffffffffffffffffffffff166112ea82610849565b73ffffffffffffffffffffffffffffffffffffffff1614611340576040517f08c379a0000000000000000000000000000000000000000000000000000000008152600401611337906133af565b60405180910390fd5b600073ffffffffffffffffffffffffffffffffffffffff168273ffffffffffffffffffffffffffffffffffffffff16036113af576040517f08c379a00000000000000000000000000000000000000000000000000000000081526004016113a690613441565b60405180910390fd5b6113bc8383836001611b7f565b8273ffffffffffffffffffffffffffffffffffffffff166113dc82610849565b73ffffffffffffffffffffffffffffffffffffffff1614611432576040517f08c379a0000000000000000000000000000000000000000000000000000000008152600401611429906133af565b60405180910390fd5b6004600082815260200190815260200160002060006101000a81549073ffffffffffffffffffffffffffffffffffffffff02191690556001600360008573ffffffffffffffffffffffffffffffffffffffff1673ffffffffffffffffffffffffffffffffffffffff168152602001908152602001600020600082825403925050819055506001600360008473ffffffffffffffffffffffffffffffffffffffff1673ffffffffffffffffffffffffffffffffffffffff16815260200190815260200160002060008282540192505081905550816002600083815260200190815260200160002060006101000a81548173ffffffffffffffffffffffffffffffffffffffff021916908373ffffffffffffffffffffffffffffffffffffffff160217905550808273ffffffffffffffffffffffffffffffffffffffff168473ffffffffffffffffffffffffffffffffffffffff167fddf252ad1be2c89b69c2b068fc378daa952ba7f163c4a11628f55a4df523b3ef60405160405180910390a46115be8383836001611c2b565b505050565b6115cc81611c31565b50565b60006002600083815260200190815260200160002060009054906101000a900473ffffffffffffffffffffffffffffffffffffffff169050919050565b611614611174565b73ffffffffffffffffffffffffffffffffffffffff1661163261099a565b73ffffffffffffffffffffffffffffffffffffffff1614611688576040517f08c379a000000000000000000000000000000000000000000000000000000000815260040161167f906134ad565b60405180910390fd5b565b6000600760009054906101000a900473ffffffffffffffffffffffffffffffffffffffff16905081600760006101000a81548173ffffffffffffffffffffffffffffffffffffffff021916908373ffffffffffffffffffffffffffffffffffffffff1602179055508173ffffffffffffffffffffffffffffffffffffffff168173ffffffffffffffffffffffffffffffffffffffff167f8be0079c531659141344cd1fd0a4f28419497f9722a3daafe3b4186f6b6457e060405160405180910390a35050565b8173ffffffffffffffffffffffffffffffffffffffff168373ffffffffffffffffffffffffffffffffffffffff16036117be576040517f08c379a00000000000000000000000000000000000000000000000000000000081526004016117b590613519565b60405180910390fd5b80600560008573ffffffffffffffffffffffffffffffffffffffff1673ffffffffffffffffffffffffffffffffffffffff16815260200190815260200160002060008473ffffffffffffffffffffffffffffffffffffffff1673ffffffffffffffffffffffffffffffffffffffff16815260200190815260200160002060006101000a81548160ff0219169083151502179055508173ffffffffffffffffffffffffffffffffffffffff168373ffffffffffffffffffffffffffffffffffffffff167f17307eab39ab6107e8899845ad3d59bd9653f200f220920489ca2b5937696c31836040516118af919061258c565b60405180910390a3505050565b6118c78484846112ca565b6118d384848484611c84565b611912576040517f08c379a0000000000000000000000000000000000000000000000000000000008152600401611909906135ab565b60405180910390fd5b50505050565b606061192382611129565b600060066000848152602001908152602001600020805461194390612c20565b80601f016020809104026020016040519081016040528092919081815260200182805461196f90612c20565b80156119bc5780601f10611991576101008083540402835291602001916119bc565b820191906000526020600020905b81548152906001019060200180831161199f57829003601f168201915b5050505050905060006119cd611097565b905060008151036119e2578192505050611a25565b600082511115611a175780826040516020016119ff9291906135cb565b60405160208183030381529060405292505050611a25565b611a2084611e0b565b925050505b919050565b600081600001549050919050565b6060611a5e8273ffffffffffffffffffffffffffffffffffffffff16601460ff16611e73565b9050919050565b606081604051602001611a78919061363b565b6040516020818303038152906040529050919050565b60606000611a9c86866120af565b9050808484604051602001611ab393929190613700565b604051602081830303815290604052915050949350505050565b611ad783836120ed565b611ae46000848484611c84565b611b23576040517f08c379a0000000000000000000000000000000000000000000000000000000008152600401611b1a906135ab565b60405180910390fd5b505050565b6001816000016000828254019250508190555050565b60008073ffffffffffffffffffffffffffffffffffffffff16611b60836115cf565b73ffffffffffffffffffffffffffffffffffffffff1614159050919050565b600073ffffffffffffffffffffffffffffffffffffffff168473ffffffffffffffffffffffffffffffffffffffff161480611be65750600073ffffffffffffffffffffffffffffffffffffffff168373ffffffffffffffffffffffffffffffffffffffff16145b611c25576040517f08c379a0000000000000000000000000000000000000000000000000000000008152600401611c1c906137a9565b60405180910390fd5b50505050565b50505050565b611c3a8161230a565b6000600660008381526020019081526020016000208054611c5a90612c20565b905014611c8157600660008281526020019081526020016000206000611c80919061247b565b5b50565b6000611ca58473ffffffffffffffffffffffffffffffffffffffff16612458565b15611dfe578373ffffffffffffffffffffffffffffffffffffffff1663150b7a02611cce611174565b8786866040518563ffffffff1660e01b8152600401611cf0949392919061381e565b6020604051808303816000875af1925050508015611d2c57506040513d601f19601f82011682018060405250810190611d29919061387f565b60015b611dae573d8060008114611d5c576040519150601f19603f3d011682016040523d82523d6000602084013e611d61565b606091505b506000815103611da6576040517f08c379a0000000000000000000000000000000000000000000000000000000008152600401611d9d906135ab565b60405180910390fd5b805181602001fd5b63150b7a0260e01b7bffffffffffffffffffffffffffffffffffffffffffffffffffffffff1916817bffffffffffffffffffffffffffffffffffffffffffffffffffffffff191614915050611e03565b600190505b949350505050565b6060611e1682611129565b6000611e20611097565b90506000815111611e405760405180602001604052806000815250611e6b565b80611e4a84610e0c565b604051602001611e5b9291906135cb565b6040516020818303038152906040525b915050919050565b606060006002836002611e8691906138db565b611e90919061391d565b67ffffffffffffffff811115611ea957611ea86128a4565b5b6040519080825280601f01601f191660200182016040528015611edb5781602001600182028036833780820191505090505b5090507f300000000000000000000000000000000000000000000000000000000000000081600081518110611f1357611f12613951565b5b60200101907effffffffffffffffffffffffffffffffffffffffffffffffffffffffffffff1916908160001a9053507f780000000000000000000000000000000000000000000000000000000000000081600181518110611f7757611f76613951565b5b60200101907effffffffffffffffffffffffffffffffffffffffffffffffffffffffffffff1916908160001a90535060006001846002611fb791906138db565b611fc1919061391d565b90505b6001811115612061577f3031323334353637383961626364656600000000000000000000000000000000600f86166010811061200357612002613951565b5b1a60f81b82828151811061201a57612019613951565b5b60200101907effffffffffffffffffffffffffffffffffffffffffffffffffffffffffffff1916908160001a905350600485901c94508061205a90613980565b9050611fc4565b50600084146120a5576040517f08c379a000000000000000000000000000000000000000000000000000000000815260040161209c906139f5565b60405180910390fd5b8091505092915050565b6060826120bb46610e0c565b6120c484610e0c565b6040516020016120d693929190613a15565b604051602081830303815290604052905092915050565b600073ffffffffffffffffffffffffffffffffffffffff168273ffffffffffffffffffffffffffffffffffffffff160361215c576040517f08c379a000000000000000000000000000000000000000000000000000000000815260040161215390613aa8565b60405180910390fd5b61216581611b3e565b156121a5576040517f08c379a000000000000000000000000000000000000000000000000000000000815260040161219c90613b14565b60405180910390fd5b6121b3600083836001611b7f565b6121bc81611b3e565b156121fc576040517f08c379a00000000000000000000000000000000000000000000000000000000081526004016121f390613b14565b60405180910390fd5b6001600360008473ffffffffffffffffffffffffffffffffffffffff1673ffffffffffffffffffffffffffffffffffffffff16815260200190815260200160002060008282540192505081905550816002600083815260200190815260200160002060006101000a81548173ffffffffffffffffffffffffffffffffffffffff021916908373ffffffffffffffffffffffffffffffffffffffff160217905550808273ffffffffffffffffffffffffffffffffffffffff16600073ffffffffffffffffffffffffffffffffffffffff167fddf252ad1be2c89b69c2b068fc378daa952ba7f163c4a11628f55a4df523b3ef60405160405180910390a4612306600083836001611c2b565b5050565b600061231582610849565b9050612325816000846001611b7f565b61232e82610849565b90506004600083815260200190815260200160002060006101000a81549073ffffffffffffffffffffffffffffffffffffffff02191690556001600360008373ffffffffffffffffffffffffffffffffffffffff1673ffffffffffffffffffffffffffffffffffffffff168152602001908152602001600020600082825403925050819055506002600083815260200190815260200160002060006101000a81549073ffffffffffffffffffffffffffffffffffffffff021916905581600073ffffffffffffffffffffffffffffffffffffffff168273ffffffffffffffffffffffffffffffffffffffff167fddf252ad1be2c89b69c2b068fc378daa952ba7f163c4a11628f55a4df523b3ef60405160405180910390a4612454816000846001611c2b565b5050565b6000808273ffffffffffffffffffffffffffffffffffffffff163b119050919050565b50805461248790612c20565b6000825580601f1061249957506124b8565b601f0160209004906000526020600020908101906124b791906124bb565b5b50565b5b808211156124d45760008160009055506001016124bc565b5090565b6000604051905090565b600080fd5b600080fd5b60007fffffffff0000000000000000000000000000000000000000000000000000000082169050919050565b612521816124ec565b811461252c57600080fd5b50565b60008135905061253e81612518565b92915050565b60006020828403121561255a576125596124e2565b5b60006125688482850161252f565b91505092915050565b60008115159050919050565b61258681612571565b82525050565b60006020820190506125a1600083018461257d565b92915050565b600081519050919050565b600082825260208201905092915050565b60005b838110156125e15780820151818401526020810190506125c6565b60008484015250505050565b6000601f19601f8301169050919050565b6000612609826125a7565b61261381856125b2565b93506126238185602086016125c3565b61262c816125ed565b840191505092915050565b6000602082019050818103600083015261265181846125fe565b905092915050565b6000819050919050565b61266c81612659565b811461267757600080fd5b50565b60008135905061268981612663565b92915050565b6000602082840312156126a5576126a46124e2565b5b60006126b38482850161267a565b91505092915050565b600073ffffffffffffffffffffffffffffffffffffffff82169050919050565b60006126e7826126bc565b9050919050565b6126f7816126dc565b82525050565b600060208201905061271260008301846126ee565b92915050565b612721816126dc565b811461272c57600080fd5b50565b60008135905061273e81612718565b92915050565b6000806040838503121561275b5761275a6124e2565b5b60006127698582860161272f565b925050602061277a8582860161267a565b9150509250929050565b60008060006060848603121561279d5761279c6124e2565b5b60006127ab8682870161272f565b93505060206127bc8682870161272f565b92505060406127cd8682870161267a565b9150509250925092565b6000602082840312156127ed576127ec6124e2565b5b60006127fb8482850161272f565b91505092915050565b61280d81612659565b82525050565b60006020820190506128286000830184612804565b92915050565b61283781612571565b811461284257600080fd5b50565b6000813590506128548161282e565b92915050565b60008060408385031215612871576128706124e2565b5b600061287f8582860161272f565b925050602061289085828601612845565b9150509250929050565b600080fd5b600080fd5b7f4e487b7100000000000000000000000000000000000000000000000000000000600052604160045260246000fd5b6128dc826125ed565b810181811067ffffffffffffffff821117156128fb576128fa6128a4565b5b80604052505050565b600061290e6124d8565b905061291a82826128d3565b919050565b600067ffffffffffffffff82111561293a576129396128a4565b5b612943826125ed565b9050602081019050919050565b82818337600083830152505050565b600061297261296d8461291f565b612904565b90508281526020810184848401111561298e5761298d61289f565b5b612999848285612950565b509392505050565b600082601f8301126129b6576129b561289a565b5b81356129c684826020860161295f565b91505092915050565b600080600080608085870312156129e9576129e86124e2565b5b60006129f78782880161272f565b9450506020612a088782880161272f565b9350506040612a198782880161267a565b925050606085013567ffffffffffffffff811115612a3a57612a396124e7565b5b612a46878288016129a1565b91505092959194509250565b600067ffffffffffffffff821115612a6d57612a6c6128a4565b5b612a76826125ed565b9050602081019050919050565b6000612a96612a9184612a52565b612904565b905082815260208101848484011115612ab257612ab161289f565b5b612abd848285612950565b509392505050565b600082601f830112612ada57612ad961289a565b5b8135612aea848260208601612a83565b91505092915050565b60008060408385031215612b0a57612b096124e2565b5b6000612b188582860161272f565b925050602083013567ffffffffffffffff811115612b3957612b386124e7565b5b612b4585828601612ac5565b9150509250929050565b60008060408385031215612b6657612b656124e2565b5b6000612b748582860161272f565b9250506020612b858582860161272f565b9150509250929050565b600081905092915050565b6000612ba5826125a7565b612baf8185612b8f565b9350612bbf8185602086016125c3565b80840191505092915050565b7f53454c4543542532302a25323046524f4d253230000000000000000000000000815250565b7f4e487b7100000000000000000000000000000000000000000000000000000000600052602260045260246000fd5b60006002820490506001821680612c3857607f821691505b602082108103612c4b57612c4a612bf1565b5b50919050565b60008190508160005260206000209050919050565b60008154612c7381612c20565b612c7d8186612b8f565b94506001821660008114612c985760018114612cad57612ce0565b60ff1983168652811515820286019350612ce0565b612cb685612c51565b60005b83811015612cd857815481890152600182019150602081019050612cb9565b838801955050505b50505092915050565b6000612cf58285612b9a565b9150612d0082612bcb565b601482019150612d108284612c66565b91508190509392505050565b7f4552433732313a20617070726f76616c20746f2063757272656e74206f776e6560008201527f7200000000000000000000000000000000000000000000000000000000000000602082015250565b6000612d786021836125b2565b9150612d8382612d1c565b604082019050919050565b60006020820190508181036000830152612da781612d6b565b9050919050565b7f4552433732313a20617070726f76652063616c6c6572206973206e6f7420746f60008201527f6b656e206f776e6572206f7220617070726f76656420666f7220616c6c000000602082015250565b6000612e0a603d836125b2565b9150612e1582612dae565b604082019050919050565b60006020820190508181036000830152612e3981612dfd565b9050919050565b7f4552433732313a2063616c6c6572206973206e6f7420746f6b656e206f776e6560008201527f72206f7220617070726f76656400000000000000000000000000000000000000602082015250565b6000612e9c602d836125b2565b9150612ea782612e40565b604082019050919050565b60006020820190508181036000830152612ecb81612e8f565b9050919050565b7f596f7520646f206e6f74206f776e207468697320534254000000000000000000600082015250565b6000612f086017836125b2565b9150612f1382612ed2565b602082019050919050565b60006020820190508181036000830152612f3781612efb565b9050919050565b7f4552433732313a20696e76616c696420746f6b656e2049440000000000000000600082015250565b6000612f746018836125b2565b9150612f7f82612f3e565b602082019050919050565b60006020820190508181036000830152612fa381612f67565b9050919050565b7f4552433732313a2061646472657373207a65726f206973206e6f74206120766160008201527f6c6964206f776e65720000000000000000000000000000000000000000000000602082015250565b60006130066029836125b2565b915061301182612faa565b604082019050919050565b6000602082019050818103600083015261303581612ff9565b9050919050565b7f2c00000000000000000000000000000000000000000000000000000000000000815250565b600061306e8286612b9a565b91506130798261303c565b6001820191506130898285612b9a565b91506130948261303c565b6001820191506130a48284612b9a565b9150819050949350505050565b60006060820190506130c660008301866126ee565b6130d36020830185612804565b81810360408301526130e581846125fe565b9050949350505050565b7f4f776e61626c653a206e6577206f776e657220697320746865207a65726f206160008201527f6464726573730000000000000000000000000000000000000000000000000000602082015250565b600061314b6026836125b2565b9150613156826130ef565b604082019050919050565b6000602082019050818103600083015261317a8161313e565b9050919050565b7f435245415445205441424c452000000000000000000000000000000000000000600082015250565b60006131b7600d83612b8f565b91506131c282613181565b600d82019050919050565b7f5f00000000000000000000000000000000000000000000000000000000000000600082015250565b6000613203600183612b8f565b915061320e826131cd565b600182019050919050565b7f2800000000000000000000000000000000000000000000000000000000000000600082015250565b600061324f600183612b8f565b915061325a82613219565b600182019050919050565b7f2900000000000000000000000000000000000000000000000000000000000000600082015250565b600061329b600183612b8f565b91506132a682613265565b600182019050919050565b60006132bc826131aa565b91506132c88286612b9a565b91506132d3826131f6565b91506132df8285612b9a565b91506132ea82613242565b91506132f68284612b9a565b91506133018261328e565b9150819050949350505050565b7f4e487b7100000000000000000000000000000000000000000000000000000000600052601260045260246000fd5b7f4552433732313a207472616e736665722066726f6d20696e636f72726563742060008201527f6f776e6572000000000000000000000000000000000000000000000000000000602082015250565b60006133996025836125b2565b91506133a48261333d565b604082019050919050565b600060208201905081810360008301526133c88161338c565b9050919050565b7f4552433732313a207472616e7366657220746f20746865207a65726f2061646460008201527f7265737300000000000000000000000000000000000000000000000000000000602082015250565b600061342b6024836125b2565b9150613436826133cf565b604082019050919050565b6000602082019050818103600083015261345a8161341e565b9050919050565b7f4f776e61626c653a2063616c6c6572206973206e6f7420746865206f776e6572600082015250565b60006134976020836125b2565b91506134a282613461565b602082019050919050565b600060208201905081810360008301526134c68161348a565b9050919050565b7f4552433732313a20617070726f766520746f2063616c6c657200000000000000600082015250565b60006135036019836125b2565b915061350e826134cd565b602082019050919050565b60006020820190508181036000830152613532816134f6565b9050919050565b7f4552433732313a207472616e7366657220746f206e6f6e20455243373231526560008201527f63656976657220696d706c656d656e7465720000000000000000000000000000602082015250565b60006135956032836125b2565b91506135a082613539565b604082019050919050565b600060208201905081810360008301526135c481613588565b9050919050565b60006135d78285612b9a565b91506135e38284612b9a565b91508190509392505050565b7f2700000000000000000000000000000000000000000000000000000000000000600082015250565b6000613625600183612b8f565b9150613630826135ef565b600182019050919050565b600061364682613618565b91506136528284612b9a565b915061365d82613618565b915081905092915050565b7f494e5345525420494e544f200000000000000000000000000000000000000000600082015250565b600061369e600c83612b8f565b91506136a982613668565b600c82019050919050565b7f2956414c55455328000000000000000000000000000000000000000000000000600082015250565b60006136ea600883612b8f565b91506136f5826136b4565b600882019050919050565b600061370b82613691565b91506137178286612b9a565b915061372282613242565b915061372e8285612b9a565b9150613739826136dd565b91506137458284612b9a565b91506137508261328e565b9150819050949350505050565b7f54686973206120736f756c626f756e6420746f6b656e00000000000000000000600082015250565b60006137936016836125b2565b915061379e8261375d565b602082019050919050565b600060208201905081810360008301526137c281613786565b9050919050565b600081519050919050565b600082825260208201905092915050565b60006137f0826137c9565b6137fa81856137d4565b935061380a8185602086016125c3565b613813816125ed565b840191505092915050565b600060808201905061383360008301876126ee565b61384060208301866126ee565b61384d6040830185612804565b818103606083015261385f81846137e5565b905095945050505050565b60008151905061387981612518565b92915050565b600060208284031215613895576138946124e2565b5b60006138a38482850161386a565b91505092915050565b7f4e487b7100000000000000000000000000000000000000000000000000000000600052601160045260246000fd5b60006138e682612659565b91506138f183612659565b92508282026138ff81612659565b91508282048414831517613916576139156138ac565b5b5092915050565b600061392882612659565b915061393383612659565b925082820190508082111561394b5761394a6138ac565b5b92915050565b7f4e487b7100000000000000000000000000000000000000000000000000000000600052603260045260246000fd5b600061398b82612659565b91506000820361399e5761399d6138ac565b5b600182039050919050565b7f537472696e67733a20686578206c656e67746820696e73756666696369656e74600082015250565b60006139df6020836125b2565b91506139ea826139a9565b602082019050919050565b60006020820190508181036000830152613a0e816139d2565b9050919050565b6000613a218286612b9a565b9150613a2c826131f6565b9150613a388285612b9a565b9150613a43826131f6565b9150613a4f8284612b9a565b9150819050949350505050565b7f4552433732313a206d696e7420746f20746865207a65726f2061646472657373600082015250565b6000613a926020836125b2565b9150613a9d82613a5c565b602082019050919050565b60006020820190508181036000830152613ac181613a85565b9050919050565b7f4552433732313a20746f6b656e20616c7265616479206d696e74656400000000600082015250565b6000613afe601c836125b2565b9150613b0982613ac8565b602082019050919050565b60006020820190508181036000830152613b2d81613af1565b905091905056fea26469706673582212204ae7cc40e1934383a375e927d661e6281dfc8127c3930a2092953f44bd1149e164736f6c6343000811003368747470733a2f2f746573746e6574732e7461626c656c616e642e6e6574776f726b2f71756572793f733d696420696e7465676572207072696d617279206b65792c6164647265737320746578742c6369642074657874",
  "devdoc": {
    "kind": "dev",
    "methods": {
      "approve(address,uint256)": {
        "details": "See {IERC721-approve}."
      },
      "balanceOf(address)": {
        "details": "See {IERC721-balanceOf}."
      },
      "burn(uint256)": {
        "details": "Burns `tokenId`. See {ERC721-_burn}. Requirements: - The caller must own `tokenId` or be an approved operator."
      },
      "getApproved(uint256)": {
        "details": "See {IERC721-getApproved}."
      },
      "isApprovedForAll(address,address)": {
        "details": "See {IERC721-isApprovedForAll}."
      },
      "name()": {
        "details": "See {IERC721Metadata-name}."
      },
      "owner()": {
        "details": "Returns the address of the current owner."
      },
      "ownerOf(uint256)": {
        "details": "See {IERC721-ownerOf}."
      },
      "renounceOwnership()": {
        "details": "Leaves the contract without owner. It will not be possible to call `onlyOwner` functions anymore. Can only be called by the current owner. NOTE: Renouncing ownership will leave the contract without an owner, thereby removing any functionality that is only available to the owner."
      },
      "safeTransferFrom(address,address,uint256)": {
        "details": "See {IERC721-safeTransferFrom}."
      },
      "safeTransferFrom(address,address,uint256,bytes)": {
        "details": "See {IERC721-safeTransferFrom}."
      },
      "setApprovalForAll(address,bool)": {
        "details": "See {IERC721-setApprovalForAll}."
      },
      "supportsInterface(bytes4)": {
        "details": "See {IERC165-supportsInterface}."
      },
      "symbol()": {
        "details": "See {IERC721Metadata-symbol}."
      },
      "transferFrom(address,address,uint256)": {
        "details": "See {IERC721-transferFrom}."
      },
      "transferOwnership(address)": {
        "details": "Transfers ownership of the contract to a new account (`newOwner`). Can only be called by the current owner."
      }
    },
    "version": 1
  },
  "userdoc": {
    "kind": "user",
    "methods": {},
    "version": 1
  },
  "storageLayout": {
    "storage": [
      {
        "astId": 4194,
        "contract": "contracts/BasicSPN.sol:Basic_SPN_Factory",
        "label": "_name",
        "offset": 0,
        "slot": "0",
        "type": "t_string_storage"
      },
      {
        "astId": 4196,
        "contract": "contracts/BasicSPN.sol:Basic_SPN_Factory",
        "label": "_symbol",
        "offset": 0,
        "slot": "1",
        "type": "t_string_storage"
      },
      {
        "astId": 4200,
        "contract": "contracts/BasicSPN.sol:Basic_SPN_Factory",
        "label": "_owners",
        "offset": 0,
        "slot": "2",
        "type": "t_mapping(t_uint256,t_address)"
      },
      {
        "astId": 4204,
        "contract": "contracts/BasicSPN.sol:Basic_SPN_Factory",
        "label": "_balances",
        "offset": 0,
        "slot": "3",
        "type": "t_mapping(t_address,t_uint256)"
      },
      {
        "astId": 4208,
        "contract": "contracts/BasicSPN.sol:Basic_SPN_Factory",
        "label": "_tokenApprovals",
        "offset": 0,
        "slot": "4",
        "type": "t_mapping(t_uint256,t_address)"
      },
      {
        "astId": 4214,
        "contract": "contracts/BasicSPN.sol:Basic_SPN_Factory",
        "label": "_operatorApprovals",
        "offset": 0,
        "slot": "5",
        "type": "t_mapping(t_address,t_mapping(t_address,t_bool))"
      },
      {
        "astId": 5290,
        "contract": "contracts/BasicSPN.sol:Basic_SPN_Factory",
        "label": "_tokenURIs",
        "offset": 0,
        "slot": "6",
        "type": "t_mapping(t_uint256,t_string_storage)"
      },
      {
        "astId": 4009,
        "contract": "contracts/BasicSPN.sol:Basic_SPN_Factory",
        "label": "_owner",
        "offset": 0,
        "slot": "7",
        "type": "t_address"
      },
      {
        "astId": 4125,
        "contract": "contracts/BasicSPN.sol:Basic_SPN_Factory",
        "label": "_status",
        "offset": 0,
        "slot": "8",
        "type": "t_uint256"
      },
      {
        "astId": 7441,
        "contract": "contracts/BasicSPN.sol:Basic_SPN_Factory",
        "label": "_tokenIds",
        "offset": 0,
        "slot": "9",
        "type": "t_struct(Counter)5834_storage"
      },
      {
        "astId": 7444,
        "contract": "contracts/BasicSPN.sol:Basic_SPN_Factory",
        "label": "_tableland",
        "offset": 0,
        "slot": "10",
        "type": "t_contract(ITablelandTables)7119"
      },
      {
        "astId": 7447,
        "contract": "contracts/BasicSPN.sol:Basic_SPN_Factory",
        "label": "_baseURIString",
        "offset": 0,
        "slot": "11",
        "type": "t_string_storage"
      },
      {
        "astId": 7449,
        "contract": "contracts/BasicSPN.sol:Basic_SPN_Factory",
        "label": "_metadataTable",
        "offset": 0,
        "slot": "12",
        "type": "t_string_storage"
      },
      {
        "astId": 7451,
        "contract": "contracts/BasicSPN.sol:Basic_SPN_Factory",
        "label": "_metadataTableId",
        "offset": 0,
        "slot": "13",
        "type": "t_uint256"
      },
      {
        "astId": 7454,
        "contract": "contracts/BasicSPN.sol:Basic_SPN_Factory",
        "label": "_tablePrefix",
        "offset": 0,
        "slot": "14",
        "type": "t_string_storage"
      }
    ],
    "types": {
      "t_address": {
        "encoding": "inplace",
        "label": "address",
        "numberOfBytes": "20"
      },
      "t_bool": {
        "encoding": "inplace",
        "label": "bool",
        "numberOfBytes": "1"
      },
      "t_contract(ITablelandTables)7119": {
        "encoding": "inplace",
        "label": "contract ITablelandTables",
        "numberOfBytes": "20"
      },
      "t_mapping(t_address,t_bool)": {
        "encoding": "mapping",
        "key": "t_address",
        "label": "mapping(address => bool)",
        "numberOfBytes": "32",
        "value": "t_bool"
      },
      "t_mapping(t_address,t_mapping(t_address,t_bool))": {
        "encoding": "mapping",
        "key": "t_address",
        "label": "mapping(address => mapping(address => bool))",
        "numberOfBytes": "32",
        "value": "t_mapping(t_address,t_bool)"
      },
      "t_mapping(t_address,t_uint256)": {
        "encoding": "mapping",
        "key": "t_address",
        "label": "mapping(address => uint256)",
        "numberOfBytes": "32",
        "value": "t_uint256"
      },
      "t_mapping(t_uint256,t_address)": {
        "encoding": "mapping",
        "key": "t_uint256",
        "label": "mapping(uint256 => address)",
        "numberOfBytes": "32",
        "value": "t_address"
      },
      "t_mapping(t_uint256,t_string_storage)": {
        "encoding": "mapping",
        "key": "t_uint256",
        "label": "mapping(uint256 => string)",
        "numberOfBytes": "32",
        "value": "t_string_storage"
      },
      "t_string_storage": {
        "encoding": "bytes",
        "label": "string",
        "numberOfBytes": "32"
      },
      "t_struct(Counter)5834_storage": {
        "encoding": "inplace",
        "label": "struct Counters.Counter",
        "members": [
          {
            "astId": 5833,
            "contract": "contracts/BasicSPN.sol:Basic_SPN_Factory",
            "label": "_value",
            "offset": 0,
            "slot": "0",
            "type": "t_uint256"
          }
        ],
        "numberOfBytes": "32"
      },
      "t_uint256": {
        "encoding": "inplace",
        "label": "uint256",
        "numberOfBytes": "32"
      }
    }
  }
}