{
  "address": "0x5FbDB2315678afecb367f032d93F642f64180aa3",
  "abi": [
    {
      "inputs": [],
      "stateMutability": "nonpayable",
      "type": "constructor"
    },
    {
      "anonymous": false,
      "inputs": [
        {
          "indexed": false,
          "internalType": "address",
          "name": "previousAdmin",
          "type": "address"
        },
        {
          "indexed": false,
          "internalType": "address",
          "name": "newAdmin",
          "type": "address"
        }
      ],
      "name": "AdminChanged",
      "type": "event"
    },
    {
      "anonymous": false,
      "inputs": [
        {
          "indexed": true,
          "internalType": "address",
          "name": "owner",
          "type": "address"
        },
        {
          "indexed": true,
          "internalType": "address",
          "name": "approved",
          "type": "address"
        },
        {
          "indexed": true,
          "internalType": "uint256",
          "name": "tokenId",
          "type": "uint256"
        }
      ],
      "name": "Approval",
      "type": "event"
    },
    {
      "anonymous": false,
      "inputs": [
        {
          "indexed": true,
          "internalType": "address",
          "name": "owner",
          "type": "address"
        },
        {
          "indexed": true,
          "internalType": "address",
          "name": "operator",
          "type": "address"
        },
        {
          "indexed": false,
          "internalType": "bool",
          "name": "approved",
          "type": "bool"
        }
      ],
      "name": "ApprovalForAll",
      "type": "event"
    },
    {
      "anonymous": false,
      "inputs": [
        {
          "indexed": true,
          "internalType": "address",
          "name": "beacon",
          "type": "address"
        }
      ],
      "name": "BeaconUpgraded",
      "type": "event"
    },
    {
      "anonymous": false,
      "inputs": [
        {
          "indexed": false,
          "internalType": "uint8",
          "name": "version",
          "type": "uint8"
        }
      ],
      "name": "Initialized",
      "type": "event"
    },
    {
      "anonymous": false,
      "inputs": [
        {
          "indexed": true,
          "internalType": "address",
          "name": "previousOwner",
          "type": "address"
        },
        {
          "indexed": true,
          "internalType": "address",
          "name": "newOwner",
          "type": "address"
        }
      ],
      "name": "OwnershipTransferred",
      "type": "event"
    },
    {
      "anonymous": false,
      "inputs": [
        {
          "indexed": false,
          "internalType": "address",
          "name": "account",
          "type": "address"
        }
      ],
      "name": "Paused",
      "type": "event"
    },
    {
      "anonymous": false,
      "inputs": [
        {
          "indexed": true,
          "internalType": "address",
          "name": "from",
          "type": "address"
        },
        {
          "indexed": true,
          "internalType": "address",
          "name": "to",
          "type": "address"
        },
        {
          "indexed": true,
          "internalType": "uint256",
          "name": "tokenId",
          "type": "uint256"
        }
      ],
      "name": "Transfer",
      "type": "event"
    },
    {
      "anonymous": false,
      "inputs": [
        {
          "indexed": false,
          "internalType": "address",
          "name": "account",
          "type": "address"
        }
      ],
      "name": "Unpaused",
      "type": "event"
    },
    {
      "anonymous": false,
      "inputs": [
        {
          "indexed": true,
          "internalType": "address",
          "name": "implementation",
          "type": "address"
        }
      ],
      "name": "Upgraded",
      "type": "event"
    },
    {
      "inputs": [
        {
          "internalType": "address",
          "name": "to",
          "type": "address"
        },
        {
          "internalType": "uint256",
          "name": "tokenId",
          "type": "uint256"
        }
      ],
      "name": "approve",
      "outputs": [],
      "stateMutability": "nonpayable",
      "type": "function"
    },
    {
      "inputs": [
        {
          "internalType": "address",
          "name": "owner",
          "type": "address"
        }
      ],
      "name": "balanceOf",
      "outputs": [
        {
          "internalType": "uint256",
          "name": "",
          "type": "uint256"
        }
      ],
      "stateMutability": "view",
      "type": "function"
    },
    {
      "inputs": [
        {
          "internalType": "uint256",
          "name": "tokenId",
          "type": "uint256"
        }
      ],
      "name": "burn",
      "outputs": [],
      "stateMutability": "nonpayable",
      "type": "function"
    },
    {
      "inputs": [
        {
          "internalType": "uint256",
          "name": "tokenId",
          "type": "uint256"
        }
      ],
      "name": "getApproved",
      "outputs": [
        {
          "internalType": "address",
          "name": "",
          "type": "address"
        }
      ],
      "stateMutability": "view",
      "type": "function"
    },
    {
      "inputs": [
        {
          "internalType": "string",
          "name": "baseURI",
          "type": "string"
        },
        {
          "internalType": "address",
          "name": "registry",
          "type": "address"
        }
      ],
      "name": "initialize",
      "outputs": [],
      "stateMutability": "nonpayable",
      "type": "function"
    },
    {
      "inputs": [
        {
          "internalType": "address",
          "name": "owner",
          "type": "address"
        },
        {
          "internalType": "address",
          "name": "operator",
          "type": "address"
        }
      ],
      "name": "isApprovedForAll",
      "outputs": [
        {
          "internalType": "bool",
          "name": "",
          "type": "bool"
        }
      ],
      "stateMutability": "view",
      "type": "function"
    },
    {
      "inputs": [],
      "name": "metadataURI",
      "outputs": [
        {
          "internalType": "string",
          "name": "",
          "type": "string"
        }
      ],
      "stateMutability": "view",
      "type": "function"
    },
    {
      "inputs": [],
      "name": "name",
      "outputs": [
        {
          "internalType": "string",
          "name": "",
          "type": "string"
        }
      ],
      "stateMutability": "view",
      "type": "function"
    },
    {
      "inputs": [
        {
          "internalType": "address",
          "name": "",
          "type": "address"
        },
        {
          "internalType": "address",
          "name": "",
          "type": "address"
        },
        {
          "internalType": "uint256",
          "name": "",
          "type": "uint256"
        },
        {
          "internalType": "bytes",
          "name": "",
          "type": "bytes"
        }
      ],
      "name": "onERC721Received",
      "outputs": [
        {
          "internalType": "bytes4",
          "name": "",
          "type": "bytes4"
        }
      ],
      "stateMutability": "nonpayable",
      "type": "function"
    },
    {
      "inputs": [],
      "name": "owner",
      "outputs": [
        {
          "internalType": "address",
          "name": "",
          "type": "address"
        }
      ],
      "stateMutability": "view",
      "type": "function"
    },
    {
      "inputs": [
        {
          "internalType": "uint256",
          "name": "tokenId",
          "type": "uint256"
        }
      ],
      "name": "ownerOf",
      "outputs": [
        {
          "internalType": "address",
          "name": "",
          "type": "address"
        }
      ],
      "stateMutability": "view",
      "type": "function"
    },
    {
      "inputs": [],
      "name": "pause",
      "outputs": [],
      "stateMutability": "nonpayable",
      "type": "function"
    },
    {
      "inputs": [],
      "name": "paused",
      "outputs": [
        {
          "internalType": "bool",
          "name": "",
          "type": "bool"
        }
      ],
      "stateMutability": "view",
      "type": "function"
    },
    {
      "inputs": [],
      "name": "proxiableUUID",
      "outputs": [
        {
          "internalType": "bytes32",
          "name": "",
          "type": "bytes32"
        }
      ],
      "stateMutability": "view",
      "type": "function"
    },
    {
      "inputs": [],
      "name": "renounceOwnership",
      "outputs": [],
      "stateMutability": "nonpayable",
      "type": "function"
    },
    {
      "inputs": [
        {
          "internalType": "address",
          "name": "to",
          "type": "address"
        },
        {
          "internalType": "string",
          "name": "cid",
          "type": "string"
        },
        {
          "internalType": "string",
          "name": "symkey",
          "type": "string"
        }
      ],
      "name": "safeMint",
      "outputs": [
        {
          "internalType": "uint256",
          "name": "",
          "type": "uint256"
        }
      ],
      "stateMutability": "nonpayable",
      "type": "function"
    },
    {
      "inputs": [
        {
          "internalType": "address",
          "name": "from",
          "type": "address"
        },
        {
          "internalType": "address",
          "name": "to",
          "type": "address"
        },
        {
          "internalType": "uint256",
          "name": "tokenId",
          "type": "uint256"
        }
      ],
      "name": "safeTransferFrom",
      "outputs": [],
      "stateMutability": "nonpayable",
      "type": "function"
    },
    {
      "inputs": [
        {
          "internalType": "address",
          "name": "from",
          "type": "address"
        },
        {
          "internalType": "address",
          "name": "to",
          "type": "address"
        },
        {
          "internalType": "uint256",
          "name": "tokenId",
          "type": "uint256"
        },
        {
          "internalType": "bytes",
          "name": "data",
          "type": "bytes"
        }
      ],
      "name": "safeTransferFrom",
      "outputs": [],
      "stateMutability": "nonpayable",
      "type": "function"
    },
    {
      "inputs": [
        {
          "internalType": "address",
          "name": "operator",
          "type": "address"
        },
        {
          "internalType": "bool",
          "name": "approved",
          "type": "bool"
        }
      ],
      "name": "setApprovalForAll",
      "outputs": [],
      "stateMutability": "nonpayable",
      "type": "function"
    },
    {
      "inputs": [
        {
          "internalType": "bytes4",
          "name": "interfaceId",
          "type": "bytes4"
        }
      ],
      "name": "supportsInterface",
      "outputs": [
        {
          "internalType": "bool",
          "name": "",
          "type": "bool"
        }
      ],
      "stateMutability": "view",
      "type": "function"
    },
    {
      "inputs": [],
      "name": "symbol",
      "outputs": [
        {
          "internalType": "string",
          "name": "",
          "type": "string"
        }
      ],
      "stateMutability": "view",
      "type": "function"
    },
    {
      "inputs": [
        {
          "internalType": "uint256",
          "name": "tokenId",
          "type": "uint256"
        }
      ],
      "name": "tokenURI",
      "outputs": [
        {
          "internalType": "string",
          "name": "",
          "type": "string"
        }
      ],
      "stateMutability": "view",
      "type": "function"
    },
    {
      "inputs": [
        {
          "internalType": "address",
          "name": "from",
          "type": "address"
        },
        {
          "internalType": "address",
          "name": "to",
          "type": "address"
        },
        {
          "internalType": "uint256",
          "name": "tokenId",
          "type": "uint256"
        }
      ],
      "name": "transferFrom",
      "outputs": [],
      "stateMutability": "nonpayable",
      "type": "function"
    },
    {
      "inputs": [
        {
          "internalType": "address",
          "name": "newOwner",
          "type": "address"
        }
      ],
      "name": "transferOwnership",
      "outputs": [],
      "stateMutability": "nonpayable",
      "type": "function"
    },
    {
      "inputs": [],
      "name": "unpause",
      "outputs": [],
      "stateMutability": "nonpayable",
      "type": "function"
    },
    {
      "inputs": [
        {
          "internalType": "address",
          "name": "newImplementation",
          "type": "address"
        }
      ],
      "name": "upgradeTo",
      "outputs": [],
      "stateMutability": "nonpayable",
      "type": "function"
    },
    {
      "inputs": [
        {
          "internalType": "address",
          "name": "newImplementation",
          "type": "address"
        },
        {
          "internalType": "bytes",
          "name": "data",
          "type": "bytes"
        }
      ],
      "name": "upgradeToAndCall",
      "outputs": [],
      "stateMutability": "payable",
      "type": "function"
    },
    {
      "inputs": [
        {
          "internalType": "uint256",
          "name": "tokenId",
          "type": "uint256"
        }
      ],
      "name": "userBurn",
      "outputs": [],
      "stateMutability": "nonpayable",
      "type": "function"
    }
  ],
  "transactionHash": "0xea01d5f8c30d4cea1500c46a8b9f470a9f31739218b02ba69d5fec79254c5b15",
  "args": [],
  "numDeployments": 1,
  "solcInputHash": "6ec1bcd9df65703ed2fd344465b89dcf",
  "bytecode": "0x60a06040523073ffffffffffffffffffffffffffffffffffffffff1660809073ffffffffffffffffffffffffffffffffffffffff168152503480156200004457600080fd5b50620000556200005b60201b60201c565b62000206565b600060019054906101000a900460ff1615620000ae576040517f08c379a0000000000000000000000000000000000000000000000000000000008152600401620000a590620001a9565b60405180910390fd5b60ff801660008054906101000a900460ff1660ff161015620001205760ff6000806101000a81548160ff021916908360ff1602179055507f7f26b83ff96e1f2b6a682f133852f6798a09c465da95921460cefb384740249860ff604051620001179190620001e9565b60405180910390a15b565b600082825260208201905092915050565b7f496e697469616c697a61626c653a20636f6e747261637420697320696e69746960008201527f616c697a696e6700000000000000000000000000000000000000000000000000602082015250565b60006200019160278362000122565b91506200019e8262000133565b604082019050919050565b60006020820190508181036000830152620001c48162000182565b9050919050565b600060ff82169050919050565b620001e381620001cb565b82525050565b6000602082019050620002006000830184620001d8565b92915050565b608051615f696200023e60003960008181610a2001528181610aae01528181610cb801528181610d460152610df60152615f696000f3fe6080604052600436106101b75760003560e01c80635c975abb116100ec57806395d89b411161008a578063c87b56dd11610064578063c87b56dd146105c1578063e985e9c5146105fe578063eca81d421461063b578063f2fde38b14610678576101b7565b806395d89b4114610544578063a22cb4651461056f578063b88d4fde14610598576101b7565b8063715018a6116100c6578063715018a6146104c25780637ab4339d146104d95780638456cb59146105025780638da5cb5b14610519576101b7565b80635c975abb1461041d5780636352211e1461044857806370a0823114610485576101b7565b80633659cfe61161015957806342966c681161013357806342966c681461038457806349640919146103ad5780634f1ef286146103d657806352d1902d146103f2576101b7565b80633659cfe61461031b5780633f4ba83a1461034457806342842e0e1461035b576101b7565b8063081812fc11610195578063081812fc1461024f578063095ea7b31461028c578063150b7a02146102b557806323b872dd146102f2576101b7565b806301ffc9a7146101bc57806303ee438c146101f957806306fdde0314610224575b600080fd5b3480156101c857600080fd5b506101e360048036038101906101de9190613cd0565b6106a1565b6040516101f09190613d18565b60405180910390f35b34801561020557600080fd5b5061020e610783565b60405161021b9190613dc3565b60405180910390f35b34801561023057600080fd5b506102396107bb565b6040516102469190613dc3565b60405180910390f35b34801561025b57600080fd5b5061027660048036038101906102719190613e1b565b61084d565b6040516102839190613e89565b60405180910390f35b34801561029857600080fd5b506102b360048036038101906102ae9190613ed0565b610893565b005b3480156102c157600080fd5b506102dc60048036038101906102d79190614045565b6109aa565b6040516102e991906140d7565b60405180910390f35b3480156102fe57600080fd5b50610319600480360381019061031491906140f2565b6109be565b005b34801561032757600080fd5b50610342600480360381019061033d9190614145565b610a1e565b005b34801561035057600080fd5b50610359610ba6565b005b34801561036757600080fd5b50610382600480360381019061037d91906140f2565b610bb8565b005b34801561039057600080fd5b506103ab60048036038101906103a69190613e1b565b610bd8565b005b3480156103b957600080fd5b506103d460048036038101906103cf9190613e1b565b610c34565b005b6103f060048036038101906103eb9190614172565b610cb6565b005b3480156103fe57600080fd5b50610407610df2565b60405161041491906141e7565b60405180910390f35b34801561042957600080fd5b50610432610eab565b60405161043f9190613d18565b60405180910390f35b34801561045457600080fd5b5061046f600480360381019061046a9190613e1b565b610ec3565b60405161047c9190613e89565b60405180910390f35b34801561049157600080fd5b506104ac60048036038101906104a79190614145565b610f49565b6040516104b99190614211565b60405180910390f35b3480156104ce57600080fd5b506104d7611000565b005b3480156104e557600080fd5b5061050060048036038101906104fb91906142cd565b611014565b005b34801561050e57600080fd5b5061051761141e565b005b34801561052557600080fd5b5061052e611430565b60405161053b9190613e89565b60405180910390f35b34801561055057600080fd5b5061055961145b565b6040516105669190613dc3565b60405180910390f35b34801561057b57600080fd5b5061059660048036038101906105919190614355565b6114ed565b005b3480156105a457600080fd5b506105bf60048036038101906105ba9190614045565b611503565b005b3480156105cd57600080fd5b506105e860048036038101906105e39190613e1b565b611565565b6040516105f59190613dc3565b60405180910390f35b34801561060a57600080fd5b5061062560048036038101906106209190614395565b611577565b6040516106329190613d18565b60405180910390f35b34801561064757600080fd5b50610662600480360381019061065d91906143d5565b61160b565b60405161066f9190614211565b60405180910390f35b34801561068457600080fd5b5061069f600480360381019061069a9190614145565b611813565b005b60007f80ac58cd000000000000000000000000000000000000000000000000000000007bffffffffffffffffffffffffffffffffffffffffffffffffffffffff1916827bffffffffffffffffffffffffffffffffffffffffffffffffffffffff1916148061076c57507f5b5e139f000000000000000000000000000000000000000000000000000000007bffffffffffffffffffffffffffffffffffffffffffffffffffffffff1916827bffffffffffffffffffffffffffffffffffffffffffffffffffffffff1916145b8061077c575061077b82611896565b5b9050919050565b6060600061078f611900565b90508061022a6040516020016107a69291906145ba565b60405160208183030381529060405291505090565b6060606580546107ca906144f1565b80601f01602080910402602001604051908101604052809291908181526020018280546107f6906144f1565b80156108435780601f1061081857610100808354040283529160200191610843565b820191906000526020600020905b81548152906001019060200180831161082657829003601f168201915b5050505050905090565b600061085882611993565b6069600083815260200190815260200160002060009054906101000a900473ffffffffffffffffffffffffffffffffffffffff169050919050565b600061089e82610ec3565b90508073ffffffffffffffffffffffffffffffffffffffff168373ffffffffffffffffffffffffffffffffffffffff160361090e576040517f08c379a00000000000000000000000000000000000000000000000000000000081526004016109059061465f565b60405180910390fd5b8073ffffffffffffffffffffffffffffffffffffffff1661092d6119de565b73ffffffffffffffffffffffffffffffffffffffff16148061095c575061095b816109566119de565b611577565b5b61099b576040517f08c379a0000000000000000000000000000000000000000000000000000000008152600401610992906146f1565b60405180910390fd5b6109a583836119e6565b505050565b600063150b7a0260e01b9050949350505050565b6109cf6109c96119de565b82611a9f565b610a0e576040517f08c379a0000000000000000000000000000000000000000000000000000000008152600401610a0590614783565b60405180910390fd5b610a19838383611b34565b505050565b7f000000000000000000000000000000000000000000000000000000000000000073ffffffffffffffffffffffffffffffffffffffff163073ffffffffffffffffffffffffffffffffffffffff1603610aac576040517f08c379a0000000000000000000000000000000000000000000000000000000008152600401610aa390614815565b60405180910390fd5b7f000000000000000000000000000000000000000000000000000000000000000073ffffffffffffffffffffffffffffffffffffffff16610aeb611e2d565b73ffffffffffffffffffffffffffffffffffffffff1614610b41576040517f08c379a0000000000000000000000000000000000000000000000000000000008152600401610b38906148a7565b60405180910390fd5b610b4a81611e84565b610ba381600067ffffffffffffffff811115610b6957610b68613f1a565b5b6040519080825280601f01601f191660200182016040528015610b9b5781602001600182028036833780820191505090505b506000611e8f565b50565b610bae611ffd565b610bb661207b565b565b610bd383838360405180602001604052806000815250611503565b505050565b610be9610be36119de565b82611a9f565b610c28576040517f08c379a0000000000000000000000000000000000000000000000000000000008152600401610c1f90614783565b60405180910390fd5b610c31816120df565b50565b3373ffffffffffffffffffffffffffffffffffffffff16610c5482610ec3565b73ffffffffffffffffffffffffffffffffffffffff1614610caa576040517f08c379a0000000000000000000000000000000000000000000000000000000008152600401610ca190614913565b60405180910390fd5b610cb3816120df565b50565b7f000000000000000000000000000000000000000000000000000000000000000073ffffffffffffffffffffffffffffffffffffffff163073ffffffffffffffffffffffffffffffffffffffff1603610d44576040517f08c379a0000000000000000000000000000000000000000000000000000000008152600401610d3b90614815565b60405180910390fd5b7f000000000000000000000000000000000000000000000000000000000000000073ffffffffffffffffffffffffffffffffffffffff16610d83611e2d565b73ffffffffffffffffffffffffffffffffffffffff1614610dd9576040517f08c379a0000000000000000000000000000000000000000000000000000000008152600401610dd0906148a7565b60405180910390fd5b610de282611e84565b610dee82826001611e8f565b5050565b60007f000000000000000000000000000000000000000000000000000000000000000073ffffffffffffffffffffffffffffffffffffffff163073ffffffffffffffffffffffffffffffffffffffff1614610e82576040517f08c379a0000000000000000000000000000000000000000000000000000000008152600401610e79906149a5565b60405180910390fd5b7f360894a13ba1a3210667c828492db98dca3e2076cc3735a920a3ca505d382bbc60001b905090565b600061015f60009054906101000a900460ff16905090565b600080610ecf836120eb565b9050600073ffffffffffffffffffffffffffffffffffffffff168173ffffffffffffffffffffffffffffffffffffffff1603610f40576040517f08c379a0000000000000000000000000000000000000000000000000000000008152600401610f3790614a11565b60405180910390fd5b80915050919050565b60008073ffffffffffffffffffffffffffffffffffffffff168273ffffffffffffffffffffffffffffffffffffffff1603610fb9576040517f08c379a0000000000000000000000000000000000000000000000000000000008152600401610fb090614aa3565b60405180910390fd5b606860008373ffffffffffffffffffffffffffffffffffffffff1673ffffffffffffffffffffffffffffffffffffffff168152602001908152602001600020549050919050565b611008611ffd565b6110126000612128565b565b60008060019054906101000a900460ff161590508080156110455750600160008054906101000a900460ff1660ff16105b806110725750611054306121f0565b1580156110715750600160008054906101000a900460ff1660ff16145b5b6110b1576040517f08c379a00000000000000000000000000000000000000000000000000000000081526004016110a890614b35565b60405180910390fd5b60016000806101000a81548160ff021916908360ff16021790555080156110ee576001600060016101000a81548160ff0219169083151502179055505b6111626040518060400160405280600681526020017f53504e44414f00000000000000000000000000000000000000000000000000008152506040518060400160405280600381526020017f53504e0000000000000000000000000000000000000000000000000000000000815250612213565b61116a612270565b6111726122c1565b61117a612312565b61118261236b565b61118a6123c4565b82610229908161119a9190614cec565b506040518060400160405280600881526020017f53504e5f4441544100000000000000000000000000000000000000000000000081525061022c90816111e09190614cec565b508161022860006101000a81548173ffffffffffffffffffffffffffffffffffffffff021916908373ffffffffffffffffffffffffffffffffffffffff16021790555061022860009054906101000a900473ffffffffffffffffffffffffffffffffffffffff1673ffffffffffffffffffffffffffffffffffffffff16633a9151b030611310604051806080016040528060428152602001615ecb6042913961022c805461128d906144f1565b80601f01602080910402602001604051908101604052809291908181526020018280546112b9906144f1565b80156113065780601f106112db57610100808354040283529160200191611306565b820191906000526020600020905b8154815290600101906020018083116112e957829003601f168201915b505050505061241d565b6040518363ffffffff1660e01b815260040161132d929190614dbe565b6020604051808303816000875af115801561134c573d6000803e3d6000fd5b505050506040513d601f19601f820116820180604052508101906113709190614e03565b61022b8190555061022c61138346612453565b61138f61022b54612453565b6040516020016113a193929190614e56565b60405160208183030381529060405261022a90816113bf9190614cec565b5080156114195760008060016101000a81548160ff0219169083151502179055507f7f26b83ff96e1f2b6a682f133852f6798a09c465da95921460cefb384740249860016040516114109190614eed565b60405180910390a15b505050565b611426611ffd565b61142e612521565b565b600061012d60009054906101000a900473ffffffffffffffffffffffffffffffffffffffff16905090565b60606066805461146a906144f1565b80601f0160208091040260200160405190810160405280929190818152602001828054611496906144f1565b80156114e35780601f106114b8576101008083540402835291602001916114e3565b820191906000526020600020905b8154815290600101906020018083116114c657829003601f168201915b5050505050905090565b6114ff6114f86119de565b8383612585565b5050565b61151461150e6119de565b83611a9f565b611553576040517f08c379a000000000000000000000000000000000000000000000000000000000815260040161154a90614783565b60405180910390fd5b61155f848484846126f1565b50505050565b60606115708261274d565b9050919050565b6000606a60008473ffffffffffffffffffffffffffffffffffffffff1673ffffffffffffffffffffffffffffffffffffffff16815260200190815260200160002060008373ffffffffffffffffffffffffffffffffffffffff1673ffffffffffffffffffffffffffffffffffffffff16815260200190815260200160002060009054906101000a900460ff16905092915050565b60008061161961022761285f565b9050606061162682612453565b6116376116328861286d565b61289a565b6116408761289a565b6116498761289a565b61165a61165542612453565b61289a565b60405160200161166e959493929190614f2e565b604051602081830303815290604052905061022860009054906101000a900473ffffffffffffffffffffffffffffffffffffffff1673ffffffffffffffffffffffffffffffffffffffff1663eaf5d04e3061022b5461179261022c80546116d4906144f1565b80601f0160208091040260200160405190810160405280929190818152602001828054611700906144f1565b801561174d5780601f106117225761010080835404028352916020019161174d565b820191906000526020600020905b81548152906001019060200180831161173057829003601f168201915b505050505061022b546040518060400160405280601a81526020017f69642c616464726573732c6369642c73796d6b65792c74696d65000000000000815250886128c3565b6040518463ffffffff1660e01b81526004016117b093929190614fb5565b600060405180830381600087803b1580156117ca57600080fd5b505af11580156117de573d6000803e3d6000fd5b505050506117fc868360405180602001604052806000815250612902565b61180761022761295d565b81925050509392505050565b61181b611ffd565b600073ffffffffffffffffffffffffffffffffffffffff168173ffffffffffffffffffffffffffffffffffffffff160361188a576040517f08c379a000000000000000000000000000000000000000000000000000000000815260040161188190615065565b60405180910390fd5b61189381612128565b50565b60007f01ffc9a7000000000000000000000000000000000000000000000000000000007bffffffffffffffffffffffffffffffffffffffffffffffffffffffff1916827bffffffffffffffffffffffffffffffffffffffffffffffffffffffff1916149050919050565b60606102298054611910906144f1565b80601f016020809104026020016040519081016040528092919081815260200182805461193c906144f1565b80156119895780601f1061195e57610100808354040283529160200191611989565b820191906000526020600020905b81548152906001019060200180831161196c57829003601f168201915b5050505050905090565b61199c81612973565b6119db576040517f08c379a00000000000000000000000000000000000000000000000000000000081526004016119d290614a11565b60405180910390fd5b50565b600033905090565b816069600083815260200190815260200160002060006101000a81548173ffffffffffffffffffffffffffffffffffffffff021916908373ffffffffffffffffffffffffffffffffffffffff160217905550808273ffffffffffffffffffffffffffffffffffffffff16611a5983610ec3565b73ffffffffffffffffffffffffffffffffffffffff167f8c5be1e5ebec7d5bd14f71427d1e84f3dd0314c0f7b2291e5b200ac8c7c3b92560405160405180910390a45050565b600080611aab83610ec3565b90508073ffffffffffffffffffffffffffffffffffffffff168473ffffffffffffffffffffffffffffffffffffffff161480611aed5750611aec8185611577565b5b80611b2b57508373ffffffffffffffffffffffffffffffffffffffff16611b138461084d565b73ffffffffffffffffffffffffffffffffffffffff16145b91505092915050565b8273ffffffffffffffffffffffffffffffffffffffff16611b5482610ec3565b73ffffffffffffffffffffffffffffffffffffffff1614611baa576040517f08c379a0000000000000000000000000000000000000000000000000000000008152600401611ba1906150f7565b60405180910390fd5b600073ffffffffffffffffffffffffffffffffffffffff168273ffffffffffffffffffffffffffffffffffffffff1603611c19576040517f08c379a0000000000000000000000000000000000000000000000000000000008152600401611c1090615189565b60405180910390fd5b611c2683838360016129b4565b8273ffffffffffffffffffffffffffffffffffffffff16611c4682610ec3565b73ffffffffffffffffffffffffffffffffffffffff1614611c9c576040517f08c379a0000000000000000000000000000000000000000000000000000000008152600401611c93906150f7565b60405180910390fd5b6069600082815260200190815260200160002060006101000a81549073ffffffffffffffffffffffffffffffffffffffff02191690556001606860008573ffffffffffffffffffffffffffffffffffffffff1673ffffffffffffffffffffffffffffffffffffffff168152602001908152602001600020600082825403925050819055506001606860008473ffffffffffffffffffffffffffffffffffffffff1673ffffffffffffffffffffffffffffffffffffffff16815260200190815260200160002060008282540192505081905550816067600083815260200190815260200160002060006101000a81548173ffffffffffffffffffffffffffffffffffffffff021916908373ffffffffffffffffffffffffffffffffffffffff160217905550808273ffffffffffffffffffffffffffffffffffffffff168473ffffffffffffffffffffffffffffffffffffffff167fddf252ad1be2c89b69c2b068fc378daa952ba7f163c4a11628f55a4df523b3ef60405160405180910390a4611e288383836001612a74565b505050565b6000611e5b7f360894a13ba1a3210667c828492db98dca3e2076cc3735a920a3ca505d382bbc60001b612a7a565b60000160009054906101000a900473ffffffffffffffffffffffffffffffffffffffff16905090565b611e8c611ffd565b50565b611ebb7f4910fdfa16fed3260ed0e7147f7cc6da11a60208b5b9406d12a635614ffd914360001b612a84565b60000160009054906101000a900460ff1615611edf57611eda83612a8e565b611ff8565b8273ffffffffffffffffffffffffffffffffffffffff166352d1902d6040518163ffffffff1660e01b8152600401602060405180830381865afa925050508015611f4757506040513d601f19601f82011682018060405250810190611f4491906151d5565b60015b611f86576040517f08c379a0000000000000000000000000000000000000000000000000000000008152600401611f7d90615274565b60405180910390fd5b7f360894a13ba1a3210667c828492db98dca3e2076cc3735a920a3ca505d382bbc60001b8114611feb576040517f08c379a0000000000000000000000000000000000000000000000000000000008152600401611fe290615306565b60405180910390fd5b50611ff7838383612b47565b5b505050565b6120056119de565b73ffffffffffffffffffffffffffffffffffffffff16612023611430565b73ffffffffffffffffffffffffffffffffffffffff1614612079576040517f08c379a000000000000000000000000000000000000000000000000000000000815260040161207090615372565b60405180910390fd5b565b612083612b73565b600061015f60006101000a81548160ff0219169083151502179055507f5db9ee0a495bf2e6ff9c91a7834c1ba4fdd244a5e8aa4e537bd38aeae4b073aa6120c86119de565b6040516120d59190613e89565b60405180910390a1565b6120e881612bbc565b50565b60006067600083815260200190815260200160002060009054906101000a900473ffffffffffffffffffffffffffffffffffffffff169050919050565b600061012d60009054906101000a900473ffffffffffffffffffffffffffffffffffffffff1690508161012d60006101000a81548173ffffffffffffffffffffffffffffffffffffffff021916908373ffffffffffffffffffffffffffffffffffffffff1602179055508173ffffffffffffffffffffffffffffffffffffffff168173ffffffffffffffffffffffffffffffffffffffff167f8be0079c531659141344cd1fd0a4f28419497f9722a3daafe3b4186f6b6457e060405160405180910390a35050565b6000808273ffffffffffffffffffffffffffffffffffffffff163b119050919050565b600060019054906101000a900460ff16612262576040517f08c379a000000000000000000000000000000000000000000000000000000000815260040161225990615404565b60405180910390fd5b61226c8282612c0f565b5050565b600060019054906101000a900460ff166122bf576040517f08c379a00000000000000000000000000000000000000000000000000000000081526004016122b690615404565b60405180910390fd5b565b600060019054906101000a900460ff16612310576040517f08c379a000000000000000000000000000000000000000000000000000000000815260040161230790615404565b60405180910390fd5b565b600060019054906101000a900460ff16612361576040517f08c379a000000000000000000000000000000000000000000000000000000000815260040161235890615404565b60405180910390fd5b612369612c82565b565b600060019054906101000a900460ff166123ba576040517f08c379a00000000000000000000000000000000000000000000000000000000081526004016123b190615404565b60405180910390fd5b6123c2612ce3565b565b600060019054906101000a900460ff16612413576040517f08c379a000000000000000000000000000000000000000000000000000000000815260040161240a90615404565b60405180910390fd5b61241b612d50565b565b60608161242946612453565b8460405160200161243c93929190615554565b604051602081830303815290604052905092915050565b60606000600161246284612daa565b01905060008167ffffffffffffffff81111561248157612480613f1a565b5b6040519080825280601f01601f1916602001820160405280156124b35781602001600182028036833780820191505090505b509050600082602001820190505b600115612516578080600190039150507f3031323334353637383961626364656600000000000000000000000000000000600a86061a8153600a858161250a576125096155b1565b5b049450600085036124c1575b819350505050919050565b612529612efd565b600161015f60006101000a81548160ff0219169083151502179055507f62e78cea01bee320cd4e420270b5ea74000d11b0c9f74754ebdbfc544b05a25861256e6119de565b60405161257b9190613e89565b60405180910390a1565b8173ffffffffffffffffffffffffffffffffffffffff168373ffffffffffffffffffffffffffffffffffffffff16036125f3576040517f08c379a00000000000000000000000000000000000000000000000000000000081526004016125ea9061562c565b60405180910390fd5b80606a60008573ffffffffffffffffffffffffffffffffffffffff1673ffffffffffffffffffffffffffffffffffffffff16815260200190815260200160002060008473ffffffffffffffffffffffffffffffffffffffff1673ffffffffffffffffffffffffffffffffffffffff16815260200190815260200160002060006101000a81548160ff0219169083151502179055508173ffffffffffffffffffffffffffffffffffffffff168373ffffffffffffffffffffffffffffffffffffffff167f17307eab39ab6107e8899845ad3d59bd9653f200f220920489ca2b5937696c31836040516126e49190613d18565b60405180910390a3505050565b6126fc848484611b34565b61270884848484612f47565b612747576040517f08c379a000000000000000000000000000000000000000000000000000000000815260040161273e906156be565b60405180910390fd5b50505050565b606061275882611993565b600060c960008481526020019081526020016000208054612778906144f1565b80601f01602080910402602001604051908101604052809291908181526020018280546127a4906144f1565b80156127f15780601f106127c6576101008083540402835291602001916127f1565b820191906000526020600020905b8154815290600101906020018083116127d457829003601f168201915b505050505090506000612802611900565b9050600081510361281757819250505061285a565b60008251111561284c5780826040516020016128349291906156de565b6040516020818303038152906040529250505061285a565b612855846130ce565b925050505b919050565b600081600001549050919050565b60606128938273ffffffffffffffffffffffffffffffffffffffff16601460ff16613136565b9050919050565b6060816040516020016128ad919061574e565b6040516020818303038152906040529050919050565b606060006128d18686613372565b90508084846040516020016128e893929190615813565b604051602081830303815290604052915050949350505050565b61290c83836133b0565b6129196000848484612f47565b612958576040517f08c379a000000000000000000000000000000000000000000000000000000000815260040161294f906156be565b60405180910390fd5b505050565b6001816000016000828254019250508190555050565b60008073ffffffffffffffffffffffffffffffffffffffff16612995836120eb565b73ffffffffffffffffffffffffffffffffffffffff1614159050919050565b6129bc612efd565b600073ffffffffffffffffffffffffffffffffffffffff168473ffffffffffffffffffffffffffffffffffffffff161480612a235750600073ffffffffffffffffffffffffffffffffffffffff168373ffffffffffffffffffffffffffffffffffffffff16145b612a62576040517f08c379a0000000000000000000000000000000000000000000000000000000008152600401612a59906158bc565b60405180910390fd5b612a6e848484846135cd565b50505050565b50505050565b6000819050919050565b6000819050919050565b612a97816121f0565b612ad6576040517f08c379a0000000000000000000000000000000000000000000000000000000008152600401612acd9061594e565b60405180910390fd5b80612b037f360894a13ba1a3210667c828492db98dca3e2076cc3735a920a3ca505d382bbc60001b612a7a565b60000160006101000a81548173ffffffffffffffffffffffffffffffffffffffff021916908373ffffffffffffffffffffffffffffffffffffffff16021790555050565b612b50836136f3565b600082511180612b5d5750805b15612b6e57612b6c8383613742565b505b505050565b612b7b610eab565b612bba576040517f08c379a0000000000000000000000000000000000000000000000000000000008152600401612bb1906159ba565b60405180910390fd5b565b612bc581613826565b600060c960008381526020019081526020016000208054612be5906144f1565b905014612c0c5760c960008281526020019081526020016000206000612c0b9190613c07565b5b50565b600060019054906101000a900460ff16612c5e576040517f08c379a0000000000000000000000000000000000000000000000000000000008152600401612c5590615404565b60405180910390fd5b8160659081612c6d9190614cec565b508060669081612c7d9190614cec565b505050565b600060019054906101000a900460ff16612cd1576040517f08c379a0000000000000000000000000000000000000000000000000000000008152600401612cc890615404565b60405180910390fd5b612ce1612cdc6119de565b612128565b565b600060019054906101000a900460ff16612d32576040517f08c379a0000000000000000000000000000000000000000000000000000000008152600401612d2990615404565b60405180910390fd5b600061015f60006101000a81548160ff021916908315150217905550565b600060019054906101000a900460ff16612d9f576040517f08c379a0000000000000000000000000000000000000000000000000000000008152600401612d9690615404565b60405180910390fd5b600161019181905550565b600080600090507a184f03e93ff9f4daa797ed6e38ed64bf6a1f0100000000000000008310612e08577a184f03e93ff9f4daa797ed6e38ed64bf6a1f0100000000000000008381612dfe57612dfd6155b1565b5b0492506040810190505b6d04ee2d6d415b85acef81000000008310612e45576d04ee2d6d415b85acef81000000008381612e3b57612e3a6155b1565b5b0492506020810190505b662386f26fc100008310612e7457662386f26fc100008381612e6a57612e696155b1565b5b0492506010810190505b6305f5e1008310612e9d576305f5e1008381612e9357612e926155b1565b5b0492506008810190505b6127108310612ec2576127108381612eb857612eb76155b1565b5b0492506004810190505b60648310612ee55760648381612edb57612eda6155b1565b5b0492506002810190505b600a8310612ef4576001810190505b80915050919050565b612f05610eab565b15612f45576040517f08c379a0000000000000000000000000000000000000000000000000000000008152600401612f3c90615a26565b60405180910390fd5b565b6000612f688473ffffffffffffffffffffffffffffffffffffffff166121f0565b156130c1578373ffffffffffffffffffffffffffffffffffffffff1663150b7a02612f916119de565b8786866040518563ffffffff1660e01b8152600401612fb39493929190615a9b565b6020604051808303816000875af1925050508015612fef57506040513d601f19601f82011682018060405250810190612fec9190615afc565b60015b613071573d806000811461301f576040519150601f19603f3d011682016040523d82523d6000602084013e613024565b606091505b506000815103613069576040517f08c379a0000000000000000000000000000000000000000000000000000000008152600401613060906156be565b60405180910390fd5b805181602001fd5b63150b7a0260e01b7bffffffffffffffffffffffffffffffffffffffffffffffffffffffff1916817bffffffffffffffffffffffffffffffffffffffffffffffffffffffff1916149150506130c6565b600190505b949350505050565b60606130d982611993565b60006130e3611900565b90506000815111613103576040518060200160405280600081525061312e565b8061310d84613974565b60405160200161311e9291906156de565b6040516020818303038152906040525b915050919050565b6060600060028360026131499190615b58565b6131539190615b9a565b67ffffffffffffffff81111561316c5761316b613f1a565b5b6040519080825280601f01601f19166020018201604052801561319e5781602001600182028036833780820191505090505b5090507f3000000000000000000000000000000000000000000000000000000000000000816000815181106131d6576131d5615bce565b5b60200101907effffffffffffffffffffffffffffffffffffffffffffffffffffffffffffff1916908160001a9053507f78000000000000000000000000000000000000000000000000000000000000008160018151811061323a57613239615bce565b5b60200101907effffffffffffffffffffffffffffffffffffffffffffffffffffffffffffff1916908160001a9053506000600184600261327a9190615b58565b6132849190615b9a565b90505b6001811115613324577f3031323334353637383961626364656600000000000000000000000000000000600f8616601081106132c6576132c5615bce565b5b1a60f81b8282815181106132dd576132dc615bce565b5b60200101907effffffffffffffffffffffffffffffffffffffffffffffffffffffffffffff1916908160001a905350600485901c94508061331d90615bfd565b9050613287565b5060008414613368576040517f08c379a000000000000000000000000000000000000000000000000000000000815260040161335f90615c72565b60405180910390fd5b8091505092915050565b60608261337e46612453565b61338784612453565b60405160200161339993929190615c92565b604051602081830303815290604052905092915050565b600073ffffffffffffffffffffffffffffffffffffffff168273ffffffffffffffffffffffffffffffffffffffff160361341f576040517f08c379a000000000000000000000000000000000000000000000000000000000815260040161341690615d25565b60405180910390fd5b61342881612973565b15613468576040517f08c379a000000000000000000000000000000000000000000000000000000000815260040161345f90615d91565b60405180910390fd5b6134766000838360016129b4565b61347f81612973565b156134bf576040517f08c379a00000000000000000000000000000000000000000000000000000000081526004016134b690615d91565b60405180910390fd5b6001606860008473ffffffffffffffffffffffffffffffffffffffff1673ffffffffffffffffffffffffffffffffffffffff16815260200190815260200160002060008282540192505081905550816067600083815260200190815260200160002060006101000a81548173ffffffffffffffffffffffffffffffffffffffff021916908373ffffffffffffffffffffffffffffffffffffffff160217905550808273ffffffffffffffffffffffffffffffffffffffff16600073ffffffffffffffffffffffffffffffffffffffff167fddf252ad1be2c89b69c2b068fc378daa952ba7f163c4a11628f55a4df523b3ef60405160405180910390a46135c9600083836001612a74565b5050565b60018111156136ed57600073ffffffffffffffffffffffffffffffffffffffff168473ffffffffffffffffffffffffffffffffffffffff16146136615780606860008673ffffffffffffffffffffffffffffffffffffffff1673ffffffffffffffffffffffffffffffffffffffff16815260200190815260200160002060008282546136599190615db1565b925050819055505b600073ffffffffffffffffffffffffffffffffffffffff168373ffffffffffffffffffffffffffffffffffffffff16146136ec5780606860008573ffffffffffffffffffffffffffffffffffffffff1673ffffffffffffffffffffffffffffffffffffffff16815260200190815260200160002060008282546136e49190615b9a565b925050819055505b5b50505050565b6136fc81612a8e565b8073ffffffffffffffffffffffffffffffffffffffff167fbc7cd75a20ee27fd9adebab32041f755214dbc6bffa90cc0225b39da2e5c2d3b60405160405180910390a250565b606061374d836121f0565b61378c576040517f08c379a000000000000000000000000000000000000000000000000000000000815260040161378390615e57565b60405180910390fd5b6000808473ffffffffffffffffffffffffffffffffffffffff16846040516137b49190615eb3565b600060405180830381855af49150503d80600081146137ef576040519150601f19603f3d011682016040523d82523d6000602084013e6137f4565b606091505b509150915061381c8282604051806060016040528060278152602001615f0d60279139613a42565b9250505092915050565b600061383182610ec3565b90506138418160008460016129b4565b61384a82610ec3565b90506069600083815260200190815260200160002060006101000a81549073ffffffffffffffffffffffffffffffffffffffff02191690556001606860008373ffffffffffffffffffffffffffffffffffffffff1673ffffffffffffffffffffffffffffffffffffffff168152602001908152602001600020600082825403925050819055506067600083815260200190815260200160002060006101000a81549073ffffffffffffffffffffffffffffffffffffffff021916905581600073ffffffffffffffffffffffffffffffffffffffff168273ffffffffffffffffffffffffffffffffffffffff167fddf252ad1be2c89b69c2b068fc378daa952ba7f163c4a11628f55a4df523b3ef60405160405180910390a4613970816000846001612a74565b5050565b60606000600161398384613a64565b01905060008167ffffffffffffffff8111156139a2576139a1613f1a565b5b6040519080825280601f01601f1916602001820160405280156139d45781602001600182028036833780820191505090505b509050600082602001820190505b600115613a37578080600190039150507f3031323334353637383961626364656600000000000000000000000000000000600a86061a8153600a8581613a2b57613a2a6155b1565b5b049450600085036139e2575b819350505050919050565b60608315613a5257829050613a5d565b613a5c8383613bb7565b5b9392505050565b600080600090507a184f03e93ff9f4daa797ed6e38ed64bf6a1f0100000000000000008310613ac2577a184f03e93ff9f4daa797ed6e38ed64bf6a1f0100000000000000008381613ab857613ab76155b1565b5b0492506040810190505b6d04ee2d6d415b85acef81000000008310613aff576d04ee2d6d415b85acef81000000008381613af557613af46155b1565b5b0492506020810190505b662386f26fc100008310613b2e57662386f26fc100008381613b2457613b236155b1565b5b0492506010810190505b6305f5e1008310613b57576305f5e1008381613b4d57613b4c6155b1565b5b0492506008810190505b6127108310613b7c576127108381613b7257613b716155b1565b5b0492506004810190505b60648310613b9f5760648381613b9557613b946155b1565b5b0492506002810190505b600a8310613bae576001810190505b80915050919050565b600082511115613bca5781518083602001fd5b806040517f08c379a0000000000000000000000000000000000000000000000000000000008152600401613bfe9190613dc3565b60405180910390fd5b508054613c13906144f1565b6000825580601f10613c255750613c44565b601f016020900490600052602060002090810190613c439190613c47565b5b50565b5b80821115613c60576000816000905550600101613c48565b5090565b6000604051905090565b600080fd5b600080fd5b60007fffffffff0000000000000000000000000000000000000000000000000000000082169050919050565b613cad81613c78565b8114613cb857600080fd5b50565b600081359050613cca81613ca4565b92915050565b600060208284031215613ce657613ce5613c6e565b5b6000613cf484828501613cbb565b91505092915050565b60008115159050919050565b613d1281613cfd565b82525050565b6000602082019050613d2d6000830184613d09565b92915050565b600081519050919050565b600082825260208201905092915050565b60005b83811015613d6d578082015181840152602081019050613d52565b60008484015250505050565b6000601f19601f8301169050919050565b6000613d9582613d33565b613d9f8185613d3e565b9350613daf818560208601613d4f565b613db881613d79565b840191505092915050565b60006020820190508181036000830152613ddd8184613d8a565b905092915050565b6000819050919050565b613df881613de5565b8114613e0357600080fd5b50565b600081359050613e1581613def565b92915050565b600060208284031215613e3157613e30613c6e565b5b6000613e3f84828501613e06565b91505092915050565b600073ffffffffffffffffffffffffffffffffffffffff82169050919050565b6000613e7382613e48565b9050919050565b613e8381613e68565b82525050565b6000602082019050613e9e6000830184613e7a565b92915050565b613ead81613e68565b8114613eb857600080fd5b50565b600081359050613eca81613ea4565b92915050565b60008060408385031215613ee757613ee6613c6e565b5b6000613ef585828601613ebb565b9250506020613f0685828601613e06565b9150509250929050565b600080fd5b600080fd5b7f4e487b7100000000000000000000000000000000000000000000000000000000600052604160045260246000fd5b613f5282613d79565b810181811067ffffffffffffffff82111715613f7157613f70613f1a565b5b80604052505050565b6000613f84613c64565b9050613f908282613f49565b919050565b600067ffffffffffffffff821115613fb057613faf613f1a565b5b613fb982613d79565b9050602081019050919050565b82818337600083830152505050565b6000613fe8613fe384613f95565b613f7a565b90508281526020810184848401111561400457614003613f15565b5b61400f848285613fc6565b509392505050565b600082601f83011261402c5761402b613f10565b5b813561403c848260208601613fd5565b91505092915050565b6000806000806080858703121561405f5761405e613c6e565b5b600061406d87828801613ebb565b945050602061407e87828801613ebb565b935050604061408f87828801613e06565b925050606085013567ffffffffffffffff8111156140b0576140af613c73565b5b6140bc87828801614017565b91505092959194509250565b6140d181613c78565b82525050565b60006020820190506140ec60008301846140c8565b92915050565b60008060006060848603121561410b5761410a613c6e565b5b600061411986828701613ebb565b935050602061412a86828701613ebb565b925050604061413b86828701613e06565b9150509250925092565b60006020828403121561415b5761415a613c6e565b5b600061416984828501613ebb565b91505092915050565b6000806040838503121561418957614188613c6e565b5b600061419785828601613ebb565b925050602083013567ffffffffffffffff8111156141b8576141b7613c73565b5b6141c485828601614017565b9150509250929050565b6000819050919050565b6141e1816141ce565b82525050565b60006020820190506141fc60008301846141d8565b92915050565b61420b81613de5565b82525050565b60006020820190506142266000830184614202565b92915050565b600067ffffffffffffffff82111561424757614246613f1a565b5b61425082613d79565b9050602081019050919050565b600061427061426b8461422c565b613f7a565b90508281526020810184848401111561428c5761428b613f15565b5b614297848285613fc6565b509392505050565b600082601f8301126142b4576142b3613f10565b5b81356142c484826020860161425d565b91505092915050565b600080604083850312156142e4576142e3613c6e565b5b600083013567ffffffffffffffff81111561430257614301613c73565b5b61430e8582860161429f565b925050602061431f85828601613ebb565b9150509250929050565b61433281613cfd565b811461433d57600080fd5b50565b60008135905061434f81614329565b92915050565b6000806040838503121561436c5761436b613c6e565b5b600061437a85828601613ebb565b925050602061438b85828601614340565b9150509250929050565b600080604083850312156143ac576143ab613c6e565b5b60006143ba85828601613ebb565b92505060206143cb85828601613ebb565b9150509250929050565b6000806000606084860312156143ee576143ed613c6e565b5b60006143fc86828701613ebb565b935050602084013567ffffffffffffffff81111561441d5761441c613c73565b5b6144298682870161429f565b925050604084013567ffffffffffffffff81111561444a57614449613c73565b5b6144568682870161429f565b9150509250925092565b600081905092915050565b600061447682613d33565b6144808185614460565b9350614490818560208601613d4f565b80840191505092915050565b7f53454c4543542532302a25323046524f4d253230000000000000000000000000815250565b7f4e487b7100000000000000000000000000000000000000000000000000000000600052602260045260246000fd5b6000600282049050600182168061450957607f821691505b60208210810361451c5761451b6144c2565b5b50919050565b60008190508160005260206000209050919050565b60008154614544816144f1565b61454e8186614460565b94506001821660008114614569576001811461457e576145b1565b60ff19831686528115158202860193506145b1565b61458785614522565b60005b838110156145a95781548189015260018201915060208101905061458a565b838801955050505b50505092915050565b60006145c6828561446b565b91506145d18261449c565b6014820191506145e18284614537565b91508190509392505050565b7f4552433732313a20617070726f76616c20746f2063757272656e74206f776e6560008201527f7200000000000000000000000000000000000000000000000000000000000000602082015250565b6000614649602183613d3e565b9150614654826145ed565b604082019050919050565b600060208201905081810360008301526146788161463c565b9050919050565b7f4552433732313a20617070726f76652063616c6c6572206973206e6f7420746f60008201527f6b656e206f776e6572206f7220617070726f76656420666f7220616c6c000000602082015250565b60006146db603d83613d3e565b91506146e68261467f565b604082019050919050565b6000602082019050818103600083015261470a816146ce565b9050919050565b7f4552433732313a2063616c6c6572206973206e6f7420746f6b656e206f776e6560008201527f72206f7220617070726f76656400000000000000000000000000000000000000602082015250565b600061476d602d83613d3e565b915061477882614711565b604082019050919050565b6000602082019050818103600083015261479c81614760565b9050919050565b7f46756e6374696f6e206d7573742062652063616c6c6564207468726f7567682060008201527f64656c656761746563616c6c0000000000000000000000000000000000000000602082015250565b60006147ff602c83613d3e565b915061480a826147a3565b604082019050919050565b6000602082019050818103600083015261482e816147f2565b9050919050565b7f46756e6374696f6e206d7573742062652063616c6c6564207468726f7567682060008201527f6163746976652070726f78790000000000000000000000000000000000000000602082015250565b6000614891602c83613d3e565b915061489c82614835565b604082019050919050565b600060208201905081810360008301526148c081614884565b9050919050565b7f596f7520646f206e6f74206f776e207468697320534254000000000000000000600082015250565b60006148fd601783613d3e565b9150614908826148c7565b602082019050919050565b6000602082019050818103600083015261492c816148f0565b9050919050565b7f555550535570677261646561626c653a206d757374206e6f742062652063616c60008201527f6c6564207468726f7567682064656c656761746563616c6c0000000000000000602082015250565b600061498f603883613d3e565b915061499a82614933565b604082019050919050565b600060208201905081810360008301526149be81614982565b9050919050565b7f4552433732313a20696e76616c696420746f6b656e2049440000000000000000600082015250565b60006149fb601883613d3e565b9150614a06826149c5565b602082019050919050565b60006020820190508181036000830152614a2a816149ee565b9050919050565b7f4552433732313a2061646472657373207a65726f206973206e6f74206120766160008201527f6c6964206f776e65720000000000000000000000000000000000000000000000602082015250565b6000614a8d602983613d3e565b9150614a9882614a31565b604082019050919050565b60006020820190508181036000830152614abc81614a80565b9050919050565b7f496e697469616c697a61626c653a20636f6e747261637420697320616c72656160008201527f647920696e697469616c697a6564000000000000000000000000000000000000602082015250565b6000614b1f602e83613d3e565b9150614b2a82614ac3565b604082019050919050565b60006020820190508181036000830152614b4e81614b12565b9050919050565b60006020601f8301049050919050565b600082821b905092915050565b600060088302614ba27fffffffffffffffffffffffffffffffffffffffffffffffffffffffffffffffff82614b65565b614bac8683614b65565b95508019841693508086168417925050509392505050565b6000819050919050565b6000614be9614be4614bdf84613de5565b614bc4565b613de5565b9050919050565b6000819050919050565b614c0383614bce565b614c17614c0f82614bf0565b848454614b72565b825550505050565b600090565b614c2c614c1f565b614c37818484614bfa565b505050565b5b81811015614c5b57614c50600082614c24565b600181019050614c3d565b5050565b601f821115614ca057614c7181614522565b614c7a84614b55565b81016020851015614c89578190505b614c9d614c9585614b55565b830182614c3c565b50505b505050565b600082821c905092915050565b6000614cc360001984600802614ca5565b1980831691505092915050565b6000614cdc8383614cb2565b9150826002028217905092915050565b614cf582613d33565b67ffffffffffffffff811115614d0e57614d0d613f1a565b5b614d1882546144f1565b614d23828285614c5f565b600060209050601f831160018114614d565760008415614d44578287015190505b614d4e8582614cd0565b865550614db6565b601f198416614d6486614522565b60005b82811015614d8c57848901518255600182019150602085019450602081019050614d67565b86831015614da95784890151614da5601f891682614cb2565b8355505b6001600288020188555050505b505050505050565b6000604082019050614dd36000830185613e7a565b8181036020830152614de58184613d8a565b90509392505050565b600081519050614dfd81613def565b92915050565b600060208284031215614e1957614e18613c6e565b5b6000614e2784828501614dee565b91505092915050565b7f5f00000000000000000000000000000000000000000000000000000000000000815250565b6000614e628286614537565b9150614e6d82614e30565b600182019150614e7d828561446b565b9150614e8882614e30565b600182019150614e98828461446b565b9150819050949350505050565b6000819050919050565b600060ff82169050919050565b6000614ed7614ed2614ecd84614ea5565b614bc4565b614eaf565b9050919050565b614ee781614ebc565b82525050565b6000602082019050614f026000830184614ede565b92915050565b7f2c00000000000000000000000000000000000000000000000000000000000000815250565b6000614f3a828861446b565b9150614f4582614f08565b600182019150614f55828761446b565b9150614f6082614f08565b600182019150614f70828661446b565b9150614f7b82614f08565b600182019150614f8b828561446b565b9150614f9682614f08565b600182019150614fa6828461446b565b91508190509695505050505050565b6000606082019050614fca6000830186613e7a565b614fd76020830185614202565b8181036040830152614fe98184613d8a565b9050949350505050565b7f4f776e61626c653a206e6577206f776e657220697320746865207a65726f206160008201527f6464726573730000000000000000000000000000000000000000000000000000602082015250565b600061504f602683613d3e565b915061505a82614ff3565b604082019050919050565b6000602082019050818103600083015261507e81615042565b9050919050565b7f4552433732313a207472616e736665722066726f6d20696e636f72726563742060008201527f6f776e6572000000000000000000000000000000000000000000000000000000602082015250565b60006150e1602583613d3e565b91506150ec82615085565b604082019050919050565b60006020820190508181036000830152615110816150d4565b9050919050565b7f4552433732313a207472616e7366657220746f20746865207a65726f2061646460008201527f7265737300000000000000000000000000000000000000000000000000000000602082015250565b6000615173602483613d3e565b915061517e82615117565b604082019050919050565b600060208201905081810360008301526151a281615166565b9050919050565b6151b2816141ce565b81146151bd57600080fd5b50565b6000815190506151cf816151a9565b92915050565b6000602082840312156151eb576151ea613c6e565b5b60006151f9848285016151c0565b91505092915050565b7f45524331393637557067726164653a206e657720696d706c656d656e7461746960008201527f6f6e206973206e6f742055555053000000000000000000000000000000000000602082015250565b600061525e602e83613d3e565b915061526982615202565b604082019050919050565b6000602082019050818103600083015261528d81615251565b9050919050565b7f45524331393637557067726164653a20756e737570706f727465642070726f7860008201527f6961626c65555549440000000000000000000000000000000000000000000000602082015250565b60006152f0602983613d3e565b91506152fb82615294565b604082019050919050565b6000602082019050818103600083015261531f816152e3565b9050919050565b7f4f776e61626c653a2063616c6c6572206973206e6f7420746865206f776e6572600082015250565b600061535c602083613d3e565b915061536782615326565b602082019050919050565b6000602082019050818103600083015261538b8161534f565b9050919050565b7f496e697469616c697a61626c653a20636f6e7472616374206973206e6f74206960008201527f6e697469616c697a696e67000000000000000000000000000000000000000000602082015250565b60006153ee602b83613d3e565b91506153f982615392565b604082019050919050565b6000602082019050818103600083015261541d816153e1565b9050919050565b7f435245415445205441424c452000000000000000000000000000000000000000600082015250565b600061545a600d83614460565b915061546582615424565b600d82019050919050565b7f5f00000000000000000000000000000000000000000000000000000000000000600082015250565b60006154a6600183614460565b91506154b182615470565b600182019050919050565b7f2800000000000000000000000000000000000000000000000000000000000000600082015250565b60006154f2600183614460565b91506154fd826154bc565b600182019050919050565b7f2900000000000000000000000000000000000000000000000000000000000000600082015250565b600061553e600183614460565b915061554982615508565b600182019050919050565b600061555f8261544d565b915061556b828661446b565b915061557682615499565b9150615582828561446b565b915061558d826154e5565b9150615599828461446b565b91506155a482615531565b9150819050949350505050565b7f4e487b7100000000000000000000000000000000000000000000000000000000600052601260045260246000fd5b7f4552433732313a20617070726f766520746f2063616c6c657200000000000000600082015250565b6000615616601983613d3e565b9150615621826155e0565b602082019050919050565b6000602082019050818103600083015261564581615609565b9050919050565b7f4552433732313a207472616e7366657220746f206e6f6e20455243373231526560008201527f63656976657220696d706c656d656e7465720000000000000000000000000000602082015250565b60006156a8603283613d3e565b91506156b38261564c565b604082019050919050565b600060208201905081810360008301526156d78161569b565b9050919050565b60006156ea828561446b565b91506156f6828461446b565b91508190509392505050565b7f2700000000000000000000000000000000000000000000000000000000000000600082015250565b6000615738600183614460565b915061574382615702565b600182019050919050565b60006157598261572b565b9150615765828461446b565b91506157708261572b565b915081905092915050565b7f494e5345525420494e544f200000000000000000000000000000000000000000600082015250565b60006157b1600c83614460565b91506157bc8261577b565b600c82019050919050565b7f2956414c55455328000000000000000000000000000000000000000000000000600082015250565b60006157fd600883614460565b9150615808826157c7565b600882019050919050565b600061581e826157a4565b915061582a828661446b565b9150615835826154e5565b9150615841828561446b565b915061584c826157f0565b9150615858828461446b565b915061586382615531565b9150819050949350505050565b7f54686973206120736f756c626f756e6420746f6b656e00000000000000000000600082015250565b60006158a6601683613d3e565b91506158b182615870565b602082019050919050565b600060208201905081810360008301526158d581615899565b9050919050565b7f455243313936373a206e657720696d706c656d656e746174696f6e206973206e60008201527f6f74206120636f6e747261637400000000000000000000000000000000000000602082015250565b6000615938602d83613d3e565b9150615943826158dc565b604082019050919050565b600060208201905081810360008301526159678161592b565b9050919050565b7f5061757361626c653a206e6f7420706175736564000000000000000000000000600082015250565b60006159a4601483613d3e565b91506159af8261596e565b602082019050919050565b600060208201905081810360008301526159d381615997565b9050919050565b7f5061757361626c653a2070617573656400000000000000000000000000000000600082015250565b6000615a10601083613d3e565b9150615a1b826159da565b602082019050919050565b60006020820190508181036000830152615a3f81615a03565b9050919050565b600081519050919050565b600082825260208201905092915050565b6000615a6d82615a46565b615a778185615a51565b9350615a87818560208601613d4f565b615a9081613d79565b840191505092915050565b6000608082019050615ab06000830187613e7a565b615abd6020830186613e7a565b615aca6040830185614202565b8181036060830152615adc8184615a62565b905095945050505050565b600081519050615af681613ca4565b92915050565b600060208284031215615b1257615b11613c6e565b5b6000615b2084828501615ae7565b91505092915050565b7f4e487b7100000000000000000000000000000000000000000000000000000000600052601160045260246000fd5b6000615b6382613de5565b9150615b6e83613de5565b9250828202615b7c81613de5565b91508282048414831517615b9357615b92615b29565b5b5092915050565b6000615ba582613de5565b9150615bb083613de5565b9250828201905080821115615bc857615bc7615b29565b5b92915050565b7f4e487b7100000000000000000000000000000000000000000000000000000000600052603260045260246000fd5b6000615c0882613de5565b915060008203615c1b57615c1a615b29565b5b600182039050919050565b7f537472696e67733a20686578206c656e67746820696e73756666696369656e74600082015250565b6000615c5c602083613d3e565b9150615c6782615c26565b602082019050919050565b60006020820190508181036000830152615c8b81615c4f565b9050919050565b6000615c9e828661446b565b9150615ca982615499565b9150615cb5828561446b565b9150615cc082615499565b9150615ccc828461446b565b9150819050949350505050565b7f4552433732313a206d696e7420746f20746865207a65726f2061646472657373600082015250565b6000615d0f602083613d3e565b9150615d1a82615cd9565b602082019050919050565b60006020820190508181036000830152615d3e81615d02565b9050919050565b7f4552433732313a20746f6b656e20616c7265616479206d696e74656400000000600082015250565b6000615d7b601c83613d3e565b9150615d8682615d45565b602082019050919050565b60006020820190508181036000830152615daa81615d6e565b9050919050565b6000615dbc82613de5565b9150615dc783613de5565b9250828203905081811115615ddf57615dde615b29565b5b92915050565b7f416464726573733a2064656c65676174652063616c6c20746f206e6f6e2d636f60008201527f6e74726163740000000000000000000000000000000000000000000000000000602082015250565b6000615e41602683613d3e565b9150615e4c82615de5565b604082019050919050565b60006020820190508181036000830152615e7081615e34565b9050919050565b600081905092915050565b6000615e8d82615a46565b615e978185615e77565b9350615ea7818560208601613d4f565b80840191505092915050565b6000615ebf8284615e82565b91508190509291505056fe696420696e7465676572207072696d617279206b65792c6164647265737320746578742c63696420746578742c73796d6b657920746578742c74696d652074657874416464726573733a206c6f772d6c6576656c2064656c65676174652063616c6c206661696c6564a2646970667358221220d9c52a9c1de9746aed8a3f0929d390555b0c96024a5830ff63626db02589945564736f6c63430008110033",
  "devdoc": {
    "kind": "dev",
    "methods": {
      "approve(address,uint256)": {
        "details": "See {IERC721-approve}."
      },
      "balanceOf(address)": {
        "details": "See {IERC721-balanceOf}."
      },
      "burn(uint256)": {
        "details": "Burns `tokenId`. See {ERC721-_burn}. Requirements: - The caller must own `tokenId` or be an approved operator."
      },
      "constructor": {
        "custom:oz-upgrades-unsafe-allow": "constructor"
      },
      "getApproved(uint256)": {
        "details": "See {IERC721-getApproved}."
      },
      "isApprovedForAll(address,address)": {
        "details": "See {IERC721-isApprovedForAll}."
      },
      "name()": {
        "details": "See {IERC721Metadata-name}."
      },
      "onERC721Received(address,address,uint256,bytes)": {
        "details": "See {IERC721Receiver-onERC721Received}. Always returns `IERC721Receiver.onERC721Received.selector`."
      },
      "owner()": {
        "details": "Returns the address of the current owner."
      },
      "ownerOf(uint256)": {
        "details": "See {IERC721-ownerOf}."
      },
      "paused()": {
        "details": "Returns true if the contract is paused, and false otherwise."
      },
      "proxiableUUID()": {
        "details": "Implementation of the ERC1822 {proxiableUUID} function. This returns the storage slot used by the implementation. It is used to validate the implementation's compatibility when performing an upgrade. IMPORTANT: A proxy pointing at a proxiable contract should not be considered proxiable itself, because this risks bricking a proxy that upgrades to it, by delegating to itself until out of gas. Thus it is critical that this function revert if invoked through a proxy. This is guaranteed by the `notDelegated` modifier."
      },
      "renounceOwnership()": {
        "details": "Leaves the contract without owner. It will not be possible to call `onlyOwner` functions anymore. Can only be called by the current owner. NOTE: Renouncing ownership will leave the contract without an owner, thereby removing any functionality that is only available to the owner."
      },
      "safeTransferFrom(address,address,uint256)": {
        "details": "See {IERC721-safeTransferFrom}."
      },
      "safeTransferFrom(address,address,uint256,bytes)": {
        "details": "See {IERC721-safeTransferFrom}."
      },
      "setApprovalForAll(address,bool)": {
        "details": "See {IERC721-setApprovalForAll}."
      },
      "supportsInterface(bytes4)": {
        "details": "See {IERC165-supportsInterface}."
      },
      "symbol()": {
        "details": "See {IERC721Metadata-symbol}."
      },
      "transferFrom(address,address,uint256)": {
        "details": "See {IERC721-transferFrom}."
      },
      "transferOwnership(address)": {
        "details": "Transfers ownership of the contract to a new account (`newOwner`). Can only be called by the current owner."
      },
      "upgradeTo(address)": {
        "details": "Upgrade the implementation of the proxy to `newImplementation`. Calls {_authorizeUpgrade}. Emits an {Upgraded} event."
      },
      "upgradeToAndCall(address,bytes)": {
        "details": "Upgrade the implementation of the proxy to `newImplementation`, and subsequently execute the function call encoded in `data`. Calls {_authorizeUpgrade}. Emits an {Upgraded} event."
      }
    },
    "version": 1
  },
  "userdoc": {
    "kind": "user",
    "methods": {},
    "version": 1
  },
  "storageLayout": {
    "storage": [
      {
        "astId": 527,
        "contract": "contracts/SPN.sol:SPN_Factory",
        "label": "_initialized",
        "offset": 0,
        "slot": "0",
        "type": "t_uint8"
      },
      {
        "astId": 530,
        "contract": "contracts/SPN.sol:SPN_Factory",
        "label": "_initializing",
        "offset": 1,
        "slot": "0",
        "type": "t_bool"
      },
      {
        "astId": 2770,
        "contract": "contracts/SPN.sol:SPN_Factory",
        "label": "__gap",
        "offset": 0,
        "slot": "1",
        "type": "t_array(t_uint256)50_storage"
      },
      {
        "astId": 3123,
        "contract": "contracts/SPN.sol:SPN_Factory",
        "label": "__gap",
        "offset": 0,
        "slot": "51",
        "type": "t_array(t_uint256)50_storage"
      },
      {
        "astId": 1054,
        "contract": "contracts/SPN.sol:SPN_Factory",
        "label": "_name",
        "offset": 0,
        "slot": "101",
        "type": "t_string_storage"
      },
      {
        "astId": 1056,
        "contract": "contracts/SPN.sol:SPN_Factory",
        "label": "_symbol",
        "offset": 0,
        "slot": "102",
        "type": "t_string_storage"
      },
      {
        "astId": 1060,
        "contract": "contracts/SPN.sol:SPN_Factory",
        "label": "_owners",
        "offset": 0,
        "slot": "103",
        "type": "t_mapping(t_uint256,t_address)"
      },
      {
        "astId": 1064,
        "contract": "contracts/SPN.sol:SPN_Factory",
        "label": "_balances",
        "offset": 0,
        "slot": "104",
        "type": "t_mapping(t_address,t_uint256)"
      },
      {
        "astId": 1068,
        "contract": "contracts/SPN.sol:SPN_Factory",
        "label": "_tokenApprovals",
        "offset": 0,
        "slot": "105",
        "type": "t_mapping(t_uint256,t_address)"
      },
      {
        "astId": 1074,
        "contract": "contracts/SPN.sol:SPN_Factory",
        "label": "_operatorApprovals",
        "offset": 0,
        "slot": "106",
        "type": "t_mapping(t_address,t_mapping(t_address,t_bool))"
      },
      {
        "astId": 1994,
        "contract": "contracts/SPN.sol:SPN_Factory",
        "label": "__gap",
        "offset": 0,
        "slot": "107",
        "type": "t_array(t_uint256)44_storage"
      },
      {
        "astId": 2178,
        "contract": "contracts/SPN.sol:SPN_Factory",
        "label": "__gap",
        "offset": 0,
        "slot": "151",
        "type": "t_array(t_uint256)50_storage"
      },
      {
        "astId": 2207,
        "contract": "contracts/SPN.sol:SPN_Factory",
        "label": "_tokenURIs",
        "offset": 0,
        "slot": "201",
        "type": "t_mapping(t_uint256,t_string_storage)"
      },
      {
        "astId": 2323,
        "contract": "contracts/SPN.sol:SPN_Factory",
        "label": "__gap",
        "offset": 0,
        "slot": "202",
        "type": "t_array(t_uint256)49_storage"
      },
      {
        "astId": 2397,
        "contract": "contracts/SPN.sol:SPN_Factory",
        "label": "__gap",
        "offset": 0,
        "slot": "251",
        "type": "t_array(t_uint256)50_storage"
      },
      {
        "astId": 10,
        "contract": "contracts/SPN.sol:SPN_Factory",
        "label": "_owner",
        "offset": 0,
        "slot": "301",
        "type": "t_address"
      },
      {
        "astId": 130,
        "contract": "contracts/SPN.sol:SPN_Factory",
        "label": "__gap",
        "offset": 0,
        "slot": "302",
        "type": "t_array(t_uint256)49_storage"
      },
      {
        "astId": 846,
        "contract": "contracts/SPN.sol:SPN_Factory",
        "label": "_paused",
        "offset": 0,
        "slot": "351",
        "type": "t_bool"
      },
      {
        "astId": 951,
        "contract": "contracts/SPN.sol:SPN_Factory",
        "label": "__gap",
        "offset": 0,
        "slot": "352",
        "type": "t_array(t_uint256)49_storage"
      },
      {
        "astId": 966,
        "contract": "contracts/SPN.sol:SPN_Factory",
        "label": "_status",
        "offset": 0,
        "slot": "401",
        "type": "t_uint256"
      },
      {
        "astId": 1024,
        "contract": "contracts/SPN.sol:SPN_Factory",
        "label": "__gap",
        "offset": 0,
        "slot": "402",
        "type": "t_array(t_uint256)49_storage"
      },
      {
        "astId": 509,
        "contract": "contracts/SPN.sol:SPN_Factory",
        "label": "__gap",
        "offset": 0,
        "slot": "451",
        "type": "t_array(t_uint256)50_storage"
      },
      {
        "astId": 824,
        "contract": "contracts/SPN.sol:SPN_Factory",
        "label": "__gap",
        "offset": 0,
        "slot": "501",
        "type": "t_array(t_uint256)50_storage"
      },
      {
        "astId": 7721,
        "contract": "contracts/SPN.sol:SPN_Factory",
        "label": "_tokenIds",
        "offset": 0,
        "slot": "551",
        "type": "t_struct(Counter)2777_storage"
      },
      {
        "astId": 7724,
        "contract": "contracts/SPN.sol:SPN_Factory",
        "label": "_tableland",
        "offset": 0,
        "slot": "552",
        "type": "t_contract(ITablelandTables)7119"
      },
      {
        "astId": 7726,
        "contract": "contracts/SPN.sol:SPN_Factory",
        "label": "_baseURIString",
        "offset": 0,
        "slot": "553",
        "type": "t_string_storage"
      },
      {
        "astId": 7728,
        "contract": "contracts/SPN.sol:SPN_Factory",
        "label": "_metadataTable",
        "offset": 0,
        "slot": "554",
        "type": "t_string_storage"
      },
      {
        "astId": 7730,
        "contract": "contracts/SPN.sol:SPN_Factory",
        "label": "_metadataTableId",
        "offset": 0,
        "slot": "555",
        "type": "t_uint256"
      },
      {
        "astId": 7732,
        "contract": "contracts/SPN.sol:SPN_Factory",
        "label": "_tablePrefix",
        "offset": 0,
        "slot": "556",
        "type": "t_string_storage"
      }
    ],
    "types": {
      "t_address": {
        "encoding": "inplace",
        "label": "address",
        "numberOfBytes": "20"
      },
      "t_array(t_uint256)44_storage": {
        "base": "t_uint256",
        "encoding": "inplace",
        "label": "uint256[44]",
        "numberOfBytes": "1408"
      },
      "t_array(t_uint256)49_storage": {
        "base": "t_uint256",
        "encoding": "inplace",
        "label": "uint256[49]",
        "numberOfBytes": "1568"
      },
      "t_array(t_uint256)50_storage": {
        "base": "t_uint256",
        "encoding": "inplace",
        "label": "uint256[50]",
        "numberOfBytes": "1600"
      },
      "t_bool": {
        "encoding": "inplace",
        "label": "bool",
        "numberOfBytes": "1"
      },
      "t_contract(ITablelandTables)7119": {
        "encoding": "inplace",
        "label": "contract ITablelandTables",
        "numberOfBytes": "20"
      },
      "t_mapping(t_address,t_bool)": {
        "encoding": "mapping",
        "key": "t_address",
        "label": "mapping(address => bool)",
        "numberOfBytes": "32",
        "value": "t_bool"
      },
      "t_mapping(t_address,t_mapping(t_address,t_bool))": {
        "encoding": "mapping",
        "key": "t_address",
        "label": "mapping(address => mapping(address => bool))",
        "numberOfBytes": "32",
        "value": "t_mapping(t_address,t_bool)"
      },
      "t_mapping(t_address,t_uint256)": {
        "encoding": "mapping",
        "key": "t_address",
        "label": "mapping(address => uint256)",
        "numberOfBytes": "32",
        "value": "t_uint256"
      },
      "t_mapping(t_uint256,t_address)": {
        "encoding": "mapping",
        "key": "t_uint256",
        "label": "mapping(uint256 => address)",
        "numberOfBytes": "32",
        "value": "t_address"
      },
      "t_mapping(t_uint256,t_string_storage)": {
        "encoding": "mapping",
        "key": "t_uint256",
        "label": "mapping(uint256 => string)",
        "numberOfBytes": "32",
        "value": "t_string_storage"
      },
      "t_string_storage": {
        "encoding": "bytes",
        "label": "string",
        "numberOfBytes": "32"
      },
      "t_struct(Counter)2777_storage": {
        "encoding": "inplace",
        "label": "struct CountersUpgradeable.Counter",
        "members": [
          {
            "astId": 2776,
            "contract": "contracts/SPN.sol:SPN_Factory",
            "label": "_value",
            "offset": 0,
            "slot": "0",
            "type": "t_uint256"
          }
        ],
        "numberOfBytes": "32"
      },
      "t_uint256": {
        "encoding": "inplace",
        "label": "uint256",
        "numberOfBytes": "32"
      },
      "t_uint8": {
        "encoding": "inplace",
        "label": "uint8",
        "numberOfBytes": "1"
      }
    }
  }
}